:020000040800F2
:1000000088430020291D00086502000867020008D7
:100010006B0200086F020008730200080000000075
:10002000000000000000000000000000770200084F
:1000300079020008000000007B0200087D02000831
:10004000431D0008431D0008431D0008431D000810
:10005000431D0008431D0008431D0008431D000800
:10006000431D0008431D0008431D0008431D0008F0
:10007000431D0008431D0008431D0008431D0008E0
:10008000431D0008431D0008431D0008431D0008D0
:100090007F020008431D0008431D0008431D00089F
:1000A000431D0008431D0008431D0008431D0008B0
:1000B000514B00084D18000829180008431D00087E
:1000C000431D0008431D0008431D0008431D000890
:1000D000431D0008971B0008431D0008111C000861
:1000E000431D0008431D0008431D0008431D000870
:1000F000431D0008431D0008431D0008431D000860
:10010000431D0008431D0008854B0008431D0008DF
:10011000431D00088B1C0008F54B0008431D000818
:10012000431D0008431D0008431D0008431D00082F
:10013000DFF80CD009F0D4F800480047450100086A
:100140008843002008B52D4C2646002500F013FA00
:1001500004F0C7F851E0C82001F0F5FB2848408AB8
:100160000A2190FBF1F72648B0F91600642190FBB4
:10017000F1F82348B0F9140090FBF1F920488069A8
:100180003B464246494600901EA009F013F9284814
:10019000408A0A2190FBF1F72548B0F91600642146
:1001A00090FBF1F82248B0F9140090FBF1F92048D7
:1001B00080693B464246494600901EA009F0FAF885
:1001C000022006F02DF8202817D1204604F059F817
:1001D00098B9204603F053FF051E0ADA204808F0BC
:1001E00057FC471C2B463A461D49212003F023FFAC
:1001F00003E02946304604F00FFCACE7D0030020B2
:10020000983C0020696D755F646174615F332D2DCA
:10021000502F522F592F503A253035642025303534
:100220006420253035642025303564200D0A000017
:10023000B43C0020696D755F646174615F352D2D7C
:10024000502F522F592F503A253035642025303504
:100250006420253035642025303564200D0A0000E7
:100260004CA60008704700BFFEE700BFFEE700BFD6
:10027000FEE700BFFEE7704770477047704710B554
:1002800006F070FB10BD10B5002006F04EFD10BD4D
:100290000CB50020019000906C48006840F480305C
:1002A0006A49086000BF6948006800F400300090A7
:1002B0000198401C0190009818B90198B0F5A06F02
:1002C000F1D16248006800F4003010B101200090C4
:1002D00001E0002000900098012843D15C480068AC
:1002E00040F010005A4908600846006820F00300FA
:1002F00008600846006840F0020008605348406803
:10030000524948600846406848600846406840F4E2
:10031000806048600846406820F47C1048600846C9
:10032000406840F4E81048600846006840F080707B
:10033000086000BF4548006800F000700028F9D050
:100340004248406820F00300404948600846406841
:1003500040F00200486000BF3C48406800F00C00DC
:100360000828F9D10CBD10B5FFF792FF10BD10B5EC
:100370003648006840F0010034490860084640688B
:10038000344908403149486008460068324908400D
:100390002E4908600846006820F48020086008465E
:1003A000406820F4FE0048604FF41F008860FFF7AB
:1003B000DAFF4FF000602949086010BD10B5002138
:1003C00000200022214B5B6803F00C0121B10429BD
:1003D00006D0082928D107E0214B224C236027E0D2
:1003E0001F4B204C236023E0184B5B6803F4701014
:1003F000164B5B6803F48032022303EB904022B972
:10040000194B4343174C23600DE0104B5B6803F41A
:10041000003323B1144B4343124C236003E0104BD1
:100420004343104C236003E00D4B0E4C236000BF90
:1004300000BF064B5B68C3F303130C4CE15C094B34
:100440001B68CB40074C236010BD00000010024029
:10045000002002400000FFF8FFFFF6FE08ED00E07C
:1004600000127A002800002000093D002C00002026
:10047000704708B501F086FE4FF4803001F0A2FE0F
:1004800001F0DFFE7849087008460078012827D17E
:10049000102002F027FB022002F010FB002001F0E8
:1004A00016FF002001F025FF4FF4806001F018FFD7
:1004B0004FF4E0114FF4803001F0ECFE012001F028
:1004C000F5FE00BF392001F0A0FE0028FAD002207E
:1004D00001F0EFFE00BF01F0F5FE0828FBD101E0BE
:1004E00000BFFEE70121080701F0C7FFFFF7C0FFCB
:1004F0000121082001F0B4FF4FF48040ADF8000066
:1005000002208DF8020010208DF80300694657483C
:1005100001F0EAFC0121102001F0A2FF49F20300E2
:10052000ADF8000003208DF8020010208DF80300C4
:1005300069464F4801F0D8FC08BD10B5002001F015
:10054000EFFE0121C80501F098FF10BD08B54FF47A
:10055000407001F0FBFB14208DF8000001208DF8A5
:10056000010000208DF8020001208DF8030068468C
:1005700001F0F1FB08BD10B500214FF0006001F063
:100580001CFCFFF776FF00F0B3FD00F0BFFD4FF459
:10059000E13001F013FA4FF4E13001F05BFA4FF46F
:1005A000E13001F0ABFA01F091F900F0B0FF10BDBD
:1005B00070477047704708B50121102001F050FFC7
:1005C0004FF44C60ADF8000010208DF803000320BC
:1005D0008DF802006946264801F086FC08BD30B55A
:1005E0000B46002100BF16E00A24B4EB107F05D9AA
:1005F000302404EB107403F8114005E0412404EBAF
:1006000010740A3C03F81140000100254C00641CE2
:100610001D554C1CE1B29142E6DB30BD70B515486A
:100620000468001D0568001D0668344454B10822A2
:1006300011492046FFF7D3FF04220F491031284605
:10064000FFF7CDFF70BD10B504462CB14FF48041CB
:10065000064801F0F8FC04E04FF48041034801F043
:10066000F0FC10BD704770473C000020000C0140BA
:1006700000100140E8F7FF1F5602002008B50121D5
:10068000042001F0EDFE4FF44060ADF800001020B2
:100690008DF8030003208DF802006946974801F0A9
:1006A00023FC4FF44061954801F0CBFC08BD10B528
:1006B0009248001D006820F470409049091D0860B0
:1006C0000846006840F44050086001208C490860EA
:1006D0008C49C1F8A801042001F011F900208849D3
:1006E0000860042001F00BF900208649C1F8A80138
:1006F00010BD10B58148001D006820F470407F498E
:10070000091D08600846006840F440500860002059
:100710007B49091F08607B49C1F8AC01042001F046
:10072000EEF801207649091F08607649C1F8AC014E
:10073000042001F0E4F810BD10B500246F48001D3E
:10074000006820F470406D49091D08600846006883
:1007500040F40040086001206949086001F0CFF8CA
:1007600001206849C1F8A80101F0C9F807E0601C40
:10077000C4B2FA2C03DDFFF7BCFF012010BD6048B6
:10078000803800680028F2D15D49091F086000BF69
:10079000F4E710B500205A49091F08605748001DAA
:1007A000006820F470405549091D0860084600683B
:1007B00040F44050086000205249C1F8AC010220CA
:1007C00001F09DF801204E49091F0860022001F048
:1007D00096F800204B49C1F8A80110BD10B50020C3
:1007E0004749091F08604548001D006820F4704013
:1007F0004249091D08600846006840F440500860FE
:1008000001204049C1F8AC01022001F078F8012034
:100810003B49091F0860022001F071F800203949A6
:10082000C1F8A80110BD70B504463448001D006829
:1008300020F470403149091D08600846006840F402
:100840004050086000202E49091F086000251DE067
:10085000E00918B101202A49086002E00020284977
:1008600008606006040E022001F049F801202449C6
:10087000091F0860022001F042F800202149C1F858
:10088000A801022001F03BF8681CC5B2082DDFDB8F
:1008900070BD70B5054600241848001D006820F49E
:1008A00070401649091D08600846006840F4004081
:1008B0000860002617E000201149091F0860022087
:1008C00001F01DF801200F49C1F8A8016006040ECF
:1008D0000B488038006808B1601CC4B2012001F0E8
:1008E0000EF8701CC6B2082EE5DB15B9FFF776FFCF
:1008F00001E0FFF74EFF204670BD0000000C0140F4
:10090000AC8121420080214210B500240020FE4924
:1009100048670021FC488167FC49C167FC48FA49E7
:10092000C1F880000021F848C0F88410F949C0F8E7
:100930008810F948F4494860F848C1F88C00C1F8BB
:100940009000F74AF749F04806F04AFA204610BDF1
:100950000FB42DE9F84F00200090BDF9280008F0F1
:10096000FCFA82460022F04B08F008FA06464FF0E7
:100970002042EE4B08F002FA80460022EC4B08F0D1
:100980006FFA044608F03AFBDF498860BDF936008B
:1009900008F0E3FA80464FF03332E64B08F0EEF908
:1009A00006460022E24B08F05BFA044608F026FBFC
:1009B000D5490862BDF9300008F0CFFA82464FF001
:1009C0006632DD4B08F04CFA06460022DB4B08F09D
:1009D000D5F904460022DA4B08F042FA804608F0C6
:1009E0000DFBC9494861BDF92A10484208F0B5FA23
:1009F00006460022CC4B08F0C1F980464FF0204259
:100A0000CA4B08F0BBF982460022C94B08F028FA0D
:100A1000044608F0F3FABC49C860BDF938104842F2
:100A200008F09BFA80464FF03332C24B08F0A6F92B
:100A300006460022BE4B08F013FA044608F0DEFA20
:100A4000B1494862BDF93210484208F086FA0646BC
:100A50004FF06632B84B08F003FA80460022B74BDD
:100A600008F08CF904460022B54B08F0F9F98246EB
:100A700008F0C4FAA4498861BDF92C10484208F076
:100A80006CFA06460022A84B08F078F980464FF031
:100A90002042A64B08F072F904460022A44B08F04D
:100AA000DFF9824608F0AAFA97490861BDF93A10C1
:100AB000484208F052FA06464FF033329D4B08F098
:100AC0005DF9804600229A4B08F0CAF9044608F006
:100AD00095FA8D498862BDF93410484208F03DFA14
:100AE00006464FF06632944B08F0BAF98046002271
:100AF000924B08F043F904460022914B08F0B0F9FC
:100B0000824608F07BFA8049C861854A85497E485B
:100B100006F074FA0C228349602003F04FFA009823
:100B2000BDE8F80F5DF814FB70B506460C46154697
:100B3000FFF7BDFD3046FFF776FEFFF7FDFD2046CF
:100B4000FFF771FEFFF7F8FD2846FFF76CFEFFF791
:100B5000F3FDFFF7CEFD70BD70B504460D46FFF7FF
:100B6000A6FD2046FFF75FFEFFF7E6FD0646284696
:100B7000FFF759FEFFF7E0FD0646FFF798FD611C01
:100B8000C8B2FFF750FEFFF7D7FD06460020FFF77B
:100B900080FE0646FFF7ADFD304670BD10B5002261
:100BA0006B21D020FFF7C0FF06221A21D020FFF7CB
:100BB000BBFF18221B21D020FFF7B6FF00221C210B
:100BC000D020FFF7B1FF02223721D020FFF7ACFF82
:100BD00000226A21D020FFF7A7FF10220A21182047
:100BE000FFF7A2FF322000F0AEFE11220A211820EA
:100BF000FFF79AFF10BD2DE9F0438DB000260027C6
:100C0000B046002566E0FFF752FDD020FFF70BFE4F
:100C1000FFF792FD3B20FFF706FEFFF78DFDFFF784
:100C200046FDD120FFF7FFFDFFF786FD002410E011
:100C30000D2C06D10020FFF72CFE01A921F814008D
:100C400005E00120FFF725FE01A921F81400601C32
:100C500084B20E2CECDBFFF74CFDBDF81600BDF89E
:100C6000141000EB012000B2ADF82C00BDF81A0002
:100C7000BDF8181000EB012000B2ADF82E00BDF851
:100C80001E00BDF81C1000EB012000B2ADF83000D2
:100C9000BDF92C0008F053F98146314607F0FFFEFC
:100CA0000646BDF92E0008F04AF98146394607F09C
:100CB000F6FE0746BDF9300008F041F9814641468D
:100CC00007F0EDFE80461F480088401C1D49088043
:100CD000681C85B2C82D96DB304608F04FF900B28B
:100CE0001849098890FBF1F000B21749088038468E
:100CF00008F044F900B21349098890FBF1F000B202
:100D000012490880404623E084040020C3F51CC13A
:100D1000A470BD3E000080BE0AD7A33CCA61B336B2
:100D2000280500201C0500200000103F9999234051
:100D300000408F403333E33F66663040FB2109407B
:100D4000008066407E00002040000020420000201D
:100D500008F014F900B2D049098890FBF1F000B214
:100D6000CE49088000200DB0BDE8F0832DE9F041A8
:100D70008AB0FFF79CFCD020FFF755FDFFF7DCFCA5
:100D80003B20FFF750FDFFF7D7FCFFF790FCD12089
:100D9000FFF749FDFFF7D0FC00240EE00D2C05D134
:100DA0000020FFF776FD2DF8140004E00120FFF786
:100DB00070FD2DF81400601CC4B20E2CEEDBFFF7A2
:100DC00098FCFFF774FC1820FFF72DFDFFF7B4FC2B
:100DD0000320FFF728FDFFF7AFFCFFF768FC1920A1
:100DE000FFF721FDFFF7A8FC0E240EE0132C05D120
:100DF0000020FFF74EFD2DF8140004E00120FFF75E
:100E000048FD2DF81400601CC4B2142CEEDBFFF773
:100E100070FC11220A211820FFF786FEBDF802009F
:100E2000BDF8001000EB012000B29D490880BDF81C
:100E30000600BDF8041000EB012000B2984948807C
:100E4000BDF80A00BDF8081000EB012000B294497B
:100E50008880BDF80E00BDF80C1000EB012000B238
:100E60008F49C880BDF81200BDF8101000EB0120BA
:100E700000B28B490881BDF81600BDF8141000EBD4
:100E8000012000B286494881BDF81A00BDF818104B
:100E900000EB012000B282498881BDF81C00BDF83A
:100EA0001E1000EB012000B27D49C881BDF8200072
:100EB000BDF8221000EB012000B279490882BDF88C
:100EC0002400BDF8261000EB012000B274494882CE
:100ED000B1F90810734AB2F90020881A08F03DF8F9
:100EE00007460022704B07F049FF054608F086F8D8
:100EF0006E4908606A49B1F90A106D4AB2F90020DA
:100F0000881A08F02AF807460022674B07F036FFD8
:100F1000054608F073F8674908606149B1F90C109B
:100F20005E4AB2F90020881A08F017F80746002236
:100F30005D4B07F023FF054608F060F85E49086046
:100F40005A48006808F047F805464FF066325B4B98
:100F500007F086FF074608F051F8544908605548E5
:100F6000006808F038F805464FF06632534B07F03A
:100F700077FF074608F042F84E4908604E4800687F
:100F800008F029F805464FF066324C4B07F068FF31
:100F9000074608F033F8484908604149B1F90000B4
:100FA00007F0CDFF464908603D49B1F9020007F05E
:100FB000C6FF444908603A49B1F9040007F0BFFF91
:100FC000414908603E48006808F005F805460022DF
:100FD0003E4B07F0D3FE074608F010F8384908608A
:100FE0003848006807F0F7FF05460022374B07F046
:100FF000C5FE074608F002F832490860324800682A
:1010000007F0E9FF05460022304B07F0B7FE074620
:1010100007F0F4FF2C4908602149B1F90E0007F0F0
:101020008EFF2B4908601E49B1F9100007F087FFB9
:10103000284908601A49B1F9120007F080FF2649D3
:101040000860244800682549086021480068244950
:1010500008602148006880F0004022490860224969
:101060001E48006807F06DFD1C4908601F491C48B8
:10107000006807F014FD1A4908601A480068194909
:1010800008600A2000F05FFC14220549492002F0A4
:1010900095FF0AB0BDE8F0817E00002044000020EA
:1010A00030040020400000200040AF3F54000020EA
:1010B00042000020580000205C00002066A64C4042
:1010C000480000204C000020500000200000103F8D
:1010D0006000002064000020680000206C000020F8
:1010E000700000207400002000002243000096429F
:1010F00010B50121084601F0B3F90121480701F0BC
:10110000BCF90121042001F0B8F910BD08B54FF475
:10111000A06000F01BFE0D208DF8000000208DF86F
:1011200001008DF8020001208DF80300684600F0F0
:1011300012FE1C208DF8000001208DF80100002017
:101140008DF8020001208DF80300684600F003FED0
:101150001D208DF8000001208DF801008DF802009F
:101160008DF80300684600F0F6FD1E208DF80000A3
:1011700001208DF8010002208DF8020001208DF879
:101180000300684600F0E7FD32208DF800000120E2
:101190008DF8010003208DF8020001208DF8030076
:1011A000684600F0D8FD36208DF8000003208DF849
:1011B00001008DF8020001208DF80300684600F060
:1011C000CAFD37208DF8000002208DF801000020B4
:1011D0008DF8020001208DF80300684600F0BBFD89
:1011E00008BD3EB504460121082001F046F9CF486C
:1011F00001F042FF4FF4FA6090FBF4F080B2ADF8DA
:10120000040048F69F40ADF800000020ADF806004D
:10121000ADF802006946C54802F002F80121C34852
:1012200002F020FE01221146C04802F070FB0121AD
:10123000BE4802F051FB00203EBD0EB5012110203A
:1012400001F01BF9BA4801F017FF4FF47A60ADF8CE
:1012500004000820ADF800000020ADF80600ADF84D
:1012600002006946B24801F0DBFF0121B04802F0FC
:10127000F9FD01221146AE4802F049FB0121AC48BC
:1012800002F02AFB00200EBD00B589B00121042028
:1012900001F0F3F80121082001F0E2F808A800F0BD
:1012A000AEFEC020ADF8200048208DF823000320BA
:1012B0008DF8220008A99F4800F016FE1E208DF828
:1012C000040001208DF805008DF806008DF8070058
:1012D00001A800F040FD984801F0CEFE05A802F0FC
:1012E000CBFA40F65F10ADF818000020ADF81400FE
:1012F000ADF81A00ADF8160005A98F4801F090FF6F
:1013000000231A4603218C4802F099FB02A802F040
:10131000C6FA0620ADF8100002A9874802F013FAB9
:101320000121854802F09EFD01221146824802F00B
:10133000EEFA0121804802F0CFFA002009B000BD8A
:1013400000B589B00121022001F097F801210420A5
:1013500001F086F808A800F052FEC020ADF8200089
:1013600048208DF8230003208DF8220008A9734837
:1013700000F0BAFD1D208DF8040001208DF8050055
:101380008DF806008DF8070001A800F0E4FC6C4819
:1013900001F072FE05A802F06FFA40F65F10ADF89A
:1013A00018000020ADF81400ADF81A00ADF81600D2
:1013B00005A9634801F034FF00231A460321604861
:1013C00002F03DFB02A802F06AFA0620ADF8100018
:1013D00002A95B4802F0B7F90121594802F042FD29
:1013E00001221146564802F092FA0121544802F0B7
:1013F00073FA002009B000BD0EB50121084601F0C6
:101400003CF84FF0804001F037FE3220ADF8040088
:1014100048F69F40ADF800000020ADF80600ADF89A
:10142000020069464FF0804001F0FAFE0121880772
:1014300002F018FD01221146900702F068FA01211E
:10144000880702F049FA00200EBD00B589B00121DD
:10145000084601F005F80121C80201F001F8012158
:10146000042000F0FDFF4FF41060ADF820000320D1
:101470008DF8220018208DF8230008A92F4800F0CD
:1014800033FD304801F0F8FD0020ADF81400ADF850
:1014900016004FF4FA70ADF818000020ADF81A00ED
:1014A0008DF81C0005A9274801F0BAFE6020ADF8B0
:1014B00004000120ADF806007F20ADF80A000020EE
:1014C000ADF80C0001A91F4801F0E7FE08211D48F6
:1014D00002F032FB01A91B4801F0B9FF08211948AD
:1014E00002F049FB0121174802F0F6FA7F20154966
:1014F000343108801349403108800121114802F03D
:10150000EBF901210F4802F0F3F909B000BD10B565
:10151000FFF79BFFFFF770FFFFF712FFFFF7B4FE27
:10152000FFF78BFE0A20FFF75CFE10BD000C0040A9
:1015300000100040000C014000080040000801407D
:1015400000040040002C014070B5C948007888BBF9
:10155000C8480288C84803880020C64E3080C64864
:10156000008804B2C4482438008800F01000102815
:101570000ED1C2480068181AC2EB021606EB8606A6
:10158000C0EB46114FF0FF30BD4E306049420BE0DA
:10159000BA480068181AC2EB021606EB860600EB82
:1015A00046110120B64E306011B90020B44E3060B3
:1015B0000D4609E0FFE70020AD4E30700025AD4E2E
:1015C0003080AD48008804B2AC48046028B270BDD9
:1015D00070B5AC48007888BBAB480288AB4804883B
:1015E0000020A94E3080A948008803B2A7482438BB
:1015F000008800F0100010280CD1A5480068201ABF
:10160000C2EB021606EB8606C0EB46110120A14E86
:1016100030600DE09E480068201AC2EB021606EB0F
:10162000860600EB46114FF0FF309A4E306049427B
:1016300011B90020974E30600D4609E0FFE7002009
:10164000904E30700025904E30809048008803B254
:101650008F48036028B270BD002007E000218E4A49
:1016600042F820108D4A42F82010401C0328F5D380
:1016700001217F4A1170834A117070472DE9F05F94
:1016800000210C460D460E460F468A460DE0824864
:1016900050F82A00861947EBE077804850F82A1066
:1016A0000C1945EBE1750AF1010ABAF1030FEED30B
:1016B000032200232046294607F099F904460D46E7
:1016C000032200233046394607F091F906460F46BB
:1016D000C8224FF0000C2346A3FB023B05FB02B1DE
:1016E00004FB0C103C220021A3FB028B00FB02B088
:1016F00003FB01094FF416620B464046494607F0CA
:1017000076F90446C82300213046A0FB03CB07FB33
:1017100003B206FB01203C22ACFB028B00FB02B0B3
:101720000CFB01094FF416620B464046494607F090
:101730005EF9064630B25A49086020B2594908603D
:10174000574800685849086056480068574908607B
:10175000BDE8F09F70B55548006853490968401AC4
:10176000534908604E48006807F0F2FB05462946D9
:10177000504803F0BFFA04464F480168204607F07E
:101780008EF94D4908604D494B48006807F05CFCF4
:1017900002D24A484849086000214748006807F0DB
:1017A00049FC02D20020444908604348006844498B
:1017B00008600846006807F0FAFB4FF08041888710
:1017C00070BD70B53848006838490968401A384912
:1017D00008603448006807F0BBFB054629463948D5
:1017E00003F088FA044638480168204607F057F9A4
:1017F0003549086031493448006807F025FC02D2B9
:101800002E483149086000212F48006807F012FC7B
:1018100002D200202C4908602B48006807F0C7FB63
:101820004FF08041088770BD10B50121124824385F
:1018300002F018FB0F4800884FF6FF71884204D071
:101840000C480088401C0B49088010BD10B50121D0
:101850000E48243802F006FB0B4800884FF6FF7153
:10186000884204D008480088401C0749088010BD01
:10187000A00000209600002024080040F400002072
:10188000EC000020A100002094000020240400406F
:10189000F8000020F000002038050020440500205A
:1018A00084000020880000208C0000209000002090
:1018B0009C000020C8000020FC00002000006145C2
:1018C00098000020A40000200001002010B56FF057
:1018D000040000F08AFA2E4800682E49B0FBF1F0AF
:1018E0002D4908700846007800EB4001C1EBC0109C
:1018F0004FF6FF7101EAC0002849088010BD01467B
:10190000254A12784A434FF0E0235A6100229A6137
:101910001A46126942F001021A6100BF4FF0E0223C
:10192000106900F001021AB100F48032002AF5D0EB
:101930004FF0E022126922F001024FF0E0231A6119
:1019400000229A6170470146144A12884A434FF0B8
:10195000E0235A6100229A611A46126942F001029C
:101960001A6100BF4FF0E022106900F001021AB1C5
:1019700000F48032002AF5D04FF0E022126922F004
:1019800001024FF0E0231A6100229A6170470000C3
:101990002800002000127A00040100200601002027
:1019A00000BF704700BFD74A128802F04002002AE9
:1019B000F9D0C2B2D34B1B1D1A80704710B586B048
:1019C0000446012144F2040000F04AFD4FF4007087
:1019D000ADF8140003208DF8160018208DF81700BC
:1019E00005A9C94800F080FA4FF48060ADF81400F2
:1019F00004208DF8170005A9C34800F075FA2520CA
:101A00008DF8000003208DF801008DF80200012000
:101A10008DF80300684600F09EF901940020ADF8AF
:101A20000800ADF80A00ADF80C00ADF810000C206D
:101A3000ADF80E0001A9B34800F0B9FD012240F253
:101A40002551B04800F04BFE0121AE4800F03BFEAE
:101A500006B010BD10B586B004460121112000F07B
:101A6000FFFC0121880400F008FD0121A74800F0D7
:101A70000CFB4FF48060ADF8140003208DF81600C5
:101A800018208DF8170005A9A14800F02DFA4FF491
:101A90000060ADF8140004208DF8170005A99C48DB
:101AA00000F022FA27208DF8000002208DF80100B6
:101AB00003208DF8020001208DF80300684600F035
:101AC0004AF901940020ADF80800ADF80A00ADF81D
:101AD0000C00ADF810000C20ADF80E0001A98D48E7
:101AE00000F065FD012240F225518A4800F0F7FD23
:101AF0000121884800F0E7FD06B010BD10B586B0A2
:101B000004460121302000F0ABFC0121080500F063
:101B1000B4FC4FF48050ADF8140003208DF816008B
:101B200018208DF8170005A9794800F0DDF9042088
:101B3000ADF814008DF8170005A9774800F0D4F926
:101B400035208DF8000003208DF801008DF802008B
:101B500001208DF80300684600F0FDF80194002094
:101B6000ADF80800ADF80A00ADF80C00ADF81000B3
:101B70000C20ADF80E0001A9684800F018FD012204
:101B800040F22551654800F0AAFD0121634800F0AC
:101B90009AFD06B010BD10B540F22551594800F02D
:101BA00083FE10B3574800F0FFFDC4B25C480088C4
:101BB00000F40040C8B95A48008800F4804060B181
:101BC0000A2C03D000205649088020E054480088A1
:101BD00040F400405249088019E00D2C06D15048CD
:101BE000008840F480404E49088010E04C4800884E
:101BF000C0F30D004B490C5449480088401C48492B
:101C0000088008460088C72801DD0020088010BD34
:101C100010B501213F4800F031FE30B13D4800F0E1
:101C2000C3FD01213B4800F036FE0821394800F091
:101C300025FE30B1374800F0B7FD0821354800F0E7
:101C40002AFE0221334800F019FE30B1314800F07D
:101C5000ABFD02212F4800F01EFE40F225512D4819
:101C600000F022FE80B120212A4800F014FE40F24C
:101C70002551284800F042FE264800F095FDC4B2E8
:101C80000321204603F05FFA10BD10B5012123485F
:101C900000F0F4FD30B1214800F086FD01211F481D
:101CA00000F0F9FD08211D4800F0E8FD30B11B48A7
:101CB00000F07AFD0821194800F0EDFD02211748D7
:101CC00000F0DCFD30B1154800F06EFD0221134834
:101CD00000F0E1FD40F22551104800F0E5FD80B133
:101CE00020210E4800F0D7FD40F225510B4800F0AE
:101CF00005FE0A4800F058FDC4B20521204603F055
:101D000022FA10BD00380140000801401000140004
:101D10000010014000480040001401400050004005
:101D20000C01002050050020064880470648004767
:101D3000FEE7FEE7FEE7FEE7FEE7FEE7FEE7FEE77B
:101D4000FEE7FEE76F030008310100083149014357
:101D5000314A1160704770B5002100230F22C4780A
:101D600004B32D4C246804F4E064C4F5E064210A53
:101D7000C1F10403CA40447804FA03F184781440A2
:101D800021430901254C0678A155047804F01F056C
:101D90000124AC4005786D11AD0005F1E025C5F8D2
:101DA000004109E0047804F01F050124AC401C4DFB
:101DB0000678761145F8264070BD1A4A0A4002435B
:101DC000154B1B1F1A60704739B1134A121D126858
:101DD0000243114B1B1D1A6006E00F4A121D1268C8
:101DE00082430D4B1B1D1A607047042808D14FF029
:101DF000E021096941F004014FF0E022116107E0A0
:101E00004FF0E021096921F004014FF0E022116157
:101E1000704700000000FA050CED00E000E400E06F
:101E200080E100E080FFFF1F10B50446CC488442EB
:101E300008D10121042000F02DFB0021042000F036
:101E400029FB46E0C748844208D10121082000F060
:101E500021FB0021082000F01DFB3AE0C24884422B
:101E600008D10121102000F015FB0021102000F006
:101E700011FB2EE0BD48844208D10121202000F052
:101E800009FB0021202000F005FB22E0B848844235
:101E900008D10121402000F0FDFA0021402000F08F
:101EA000F9FA16E0B348844208D10121802000F0FD
:101EB000F1FA0021802000F0EDFA0AE0AE488442F9
:101EC00007D10121801500F0E5FA0021A01500F0EE
:101ED000E1FA10BD10B50121084600F0DBFA00213F
:101EE000012000F0D7FA10BD2DE9F041024600258F
:101EF0000026002000230024002791F803C00CF0E6
:101F00000F0591F803C00CF0100CBCF1000F03D0CA
:101F100091F802C04CEA050591F800C0BCF1000F31
:101F200031D0146800202BE04FF0010C0CFA00F3C4
:101F3000B1F800C00CEA03069E4220D183004FF0A6
:101F40000F0C0CFA03F7BC4305FA03FC4CEA04043B
:101F500091F803C0BCF1280F06D14FF0010C0CFA28
:101F600000FCC2F814C00AE091F803C0BCF1480FAD
:101F700005D14FF0010C0CFA00FCC2F810C0401C57
:101F80000828D1D31460B1F800C0BCF1FF0F34DDD4
:101F9000546800202EE000F1080C4FF0010808FA08
:101FA0000CF3B1F800C00CEA03069E4221D1830075
:101FB0004FF00F0C0CFA03F7BC4305FA03FC4CEA94
:101FC000040491F803C0BCF1280F05D100F1080CFE
:101FD00008FA0CF8C2F8148091F803C0BCF1480F5D
:101FE00007D100F1080C4FF0010808FA0CF8C2F80C
:101FF0001080401C0828CED35460BDE8F0814FF615
:10200000FF710180022181700421C1707047024676
:10201000002093680B400BB1012000E000207047C6
:102020000146886880B2704702460020D3680B40A2
:102030000BB1012000E0002070470146C86880B263
:10204000704701617047416170470AB1016100E06A
:1020500041617047C16070474FF480320A4382612A
:102060008161826182698269704702460020434B28
:1020700018684FF68073184040EA021008433F4B3F
:10208000186070473E49C8617047F0B50A460023A2
:1020900000240021002500F00046B6F1004F02D1D7
:1020A000364EF16901E0354E7168C0F3034583B2E5
:1020B00000F44016B6F5401F08D121F070612F4E94
:1020C000766826F070662D4F7E6012E000F4801670
:1020D000B6F5801F06D1032606FA05F4A14341F0A8
:1020E000706106E0460D360103FA06F6B14341F091
:1020F000706122B1460D360103FA06F6314300F055
:102100000046B6F1004F02D11C4EF16101E01B4EBA
:102110007160F0BD30B500228B071C0F0F2303FA4E
:1021200004F2164B08338C1053F824309343134CAD
:1021300008348D1044F8253023468C1053F8243091
:102140008C07240F00FA04F423430C4C08348D1040
:1021500044F8253030BD0A49DC3108607047000082
:1021600000080140000C0140001001400014014033
:1021700000180140001C0140002001400000014007
:1021800000002042DF48006840F00100DD4908609F
:1021900008464068DC490840DA494860084600685B
:1021A000DA490840D74908600846006820F48020D2
:1021B00008600846406820F4FE0048604FF41F00A5
:1021C00088607047CF49096821F48031CD4A116099
:1021D0001146096821F480211160B0F5803F03D0D9
:1021E000B0F5802F0ED106E0C649096841F4803170
:1021F000C44A116007E0C349096841F4A021C14AFB
:10220000116000E000BF00BF704710B5014600221A
:10221000002300204A11012A02D1BA4C236806E0AB
:10222000022A02D1B74C236A01E0B64C636A01F07E
:102230001F02012494401C400CB1012000E000204A
:1022400010BD38B5002000900024002500BF3120CB
:10225000FFF7DBFF05460098401C00900098B0F5A2
:10226000A06F01D0002DF2D03120FFF7CEFF08B1D2
:10227000012400E00024204638BD01460020A14A88
:10228000106820F0F80040EAC10010607047A049D3
:1022900008607047024600209A4B586820F47C1072
:1022A00042EA01031843974B586070479849086603
:1022B000704701460020934A506820F0030008430D
:1022C000506070478F48406800F00C00704701462E
:1022D00000208C4A506820F0F0000843506070479E
:1022E00001460020874A506820F4E06008435060AF
:1022F000704701460020834A506820F4605040EA4D
:10230000C1005060704729B17E4A527A02437D4B2A
:102310005A7204E07B4A527A82437A4B5A7270476F
:102320007B49D8310860704701460020754A5068E3
:1023300020F440400843506070470021714A203229
:102340001170704A82F82010012802D004280AD1A6
:1023500004E001216B4A2032117005E00521694A31
:102360002032117000E000BF00BF7047694908606B
:1023700070476449096A0143624A116270476549BE
:1023800044390860704730B5002100220024002342
:102390005C4D6D6805F00C0121B1042905D00829B8
:1023A00023D105E05C4D056022E05B4D05601FE038
:1023B000544D6D6805F47012524D6D6805F480340B
:1023C000022505EB92421CB9544D554305600BE0C4
:1023D0004C4D6D6805F400351DB1504D55430560F9
:1023E00002E04D4D5543056002E04B4D056000BFD6
:1023F00000BF444D6D6805F0F0010909484D6B5C64
:102400000568DD4045603F4D6D6805F4E061090AEF
:10241000434D6B5C4568DD4085603A4D6D6805F461
:102420006051C90A3E4D6B5C4568DD40C560354D65
:102430006D6805F44041890B3A4D6B5CC568B5FB8E
:10244000F3F5056130BD29B12E4A526902432D4B87
:102450005A6104E02B4A526982432A4B5A61704701
:1024600029B1284A92690243264B9A6104E0254A21
:1024700092698243234B9A61704729B1214AD269FC
:102480000243204BDA6104E01E4AD26982431D4BAD
:10249000DA61704729B11B4AD2680243194BDA60EE
:1024A00004E0184AD2688243164BDA60704729B1BB
:1024B000144A12690243134B1A6104E0114A12696B
:1024C0008243104B1A6170471249403908607047C7
:1024D0000F49C86470470B49C87170470948406A82
:1024E00040F0807007494862704701460020054A65
:1024F00092680A400AB1012000E0002070470149BB
:1025000088727047001002400000FFF8FFFFF6FEDF
:10251000000042428004424200127A0000093D005D
:102520000E0100201E01002010B50446FB48844225
:1025300009D101218803FFF7ADFF00214FF480404E
:10254000FFF7A8FF32E0F648844209D10121480490
:10255000FFF7ADFF00214FF40030FFF7A8FF25E0A3
:10256000F048844209D101218804FFF7A0FF00212F
:102570004FF48020FFF79BFF18E0EB48844209D11D
:102580000121C804FFF793FF00214FF40020FFF75B
:102590008EFF0BE0E548844208D101210805FFF7D2
:1025A00086FF00214FF48010FFF781FF10BD2DE959
:1025B000F04786B005460E460024A24600BFA1465D
:1025C0000027B08900B100BF2F462C8A4CF6FF705F
:1025D0000440F08804432C82AC894EF6F31004408A
:1025E000B08831890843718908430443AC81AC8ABF
:1025F0004FF6FF400440B0890443AC8201A8FFF7C6
:10260000C2FEC648874202D1DDF810A001E0DDF825
:102610000CA0A88900F4004040B10AEBCA0000EB0E
:102620000A1031684900B0FBF1F807E00AEBCA0074
:1026300000EB0A1031688900B0FBF1F86420B8FBA8
:10264000F0F004012009642101FB1089A88900F43D
:10265000004040B1322000EBC900B0FBF1F000F0C7
:102660000700044308E0322000EB09106421B0FBAE
:10267000F1F000F00F0004432C8106B0BDE8F087B4
:102680004FF41651016000218180C18001810C212D
:10269000418100218181704710B502460020108AD7
:1026A0004FF2FF0318400B884C8823438C88234348
:1026B000CC8823431843108210BD00210180418043
:1026C0008180C180704721B1828942F400528281A9
:1026D00004E082894DF6FF731A4082817047F0B59D
:1026E0000346002400260025002040F66A17B94260
:1026F00000D100BF1846C1F3421401F01F060127A4
:1027000007FA06F5012C01D10C3004E0022C01D1AE
:10271000103000E014301AB107682F43076002E060
:102720000768AF430760F0BD1AB1838A0B43838209
:1027300002E0838A8B4383827047028A4FF6F073EC
:102740001A400282028A0A430282704782894FF24B
:10275000FF731A40828182890A438281704721B1C6
:10276000828942F00202828104E082894FF6FD7381
:102770001A4082817047028A4FF6DF731A40028244
:10278000028A0A430282704721B1028A42F48042DF
:10279000028204E0028A4BF6FF731A4002827047FD
:1027A000C1F308028280704701468888C0F30800A0
:1027B0007047818941F0010181817047028BD2B25B
:1027C0000283028B42EA012202837047028B02F4E9
:1027D0007F420283028B0A430283704721B1828ABF
:1027E00042F02002828204E0828A4FF6DF731A40B0
:1027F0008282704721B1828A42F01002828204E014
:10280000828A4FF6EF731A408282704721B1828A22
:1028100042F00802828204E0828A4FF6F7731A407F
:102820008282704721B1828942F40042828103E0B2
:102830008289C2F30E028281704721B1828A42F4FA
:102840000062828204E0828A4FF2FF731A40828221
:102850007047828A4FF6FB731A408282828A0A434B
:102860008282704721B1828A42F00202828204E0B1
:10287000828A4FF6FD731A4082827047024600201A
:10288000B1F5007F00D100BF13880B400BB10120D0
:1028900000E00020704701F40072B2F5007F00D123
:1028A00000BFCA430280704770B50246002400236F
:1028B0000025002040F66A16B14200D100BFC1F3E6
:1028C000421501F01F03012606FA03F3012D02D180
:1028D0009689334006E0022D02D1168A334001E08A
:1028E000968A33400C12012606FA04F41688344006
:1028F00013B10CB1012000E0002070BD10B5002222
:10290000002340F66A14A14200D100BF0A1201243C
:102910009440A3B2DC43048010BD000000380140A5
:102920000044004000480040004C0040005000407F
:1029300010B501214807FFF7BAFD00214FF0005004
:10294000FFF7B5FD10BD30B5002200235A4C2268B8
:1029500040F6FE748440A243D1E900452C438D68C3
:102960002C43CD6844EA050303FA00F42243524C99
:10297000226030BD0021016041608160C16070470C
:1029800039B14D4A1268012383401A434A4B1A60F9
:1029900006E0494A1268012383409A43464B1A6075
:1029A000704741B1444A12684FF4805383401A4340
:1029B000414B1A6007E0404A12684FF4805383404D
:1029C0009A433D4B1A60704710B551B13A4A121DF7
:1029D000126804090123A3401A43374B1B1D1A60D8
:1029E00009E0354A121D126804090123A3409A43E5
:1029F000314B1B1D1A6010BD40B12F49091D0968DC
:102A000041F003012C4A121D116007E02A49091DFB
:102A1000096821F00301284A121D1160704710B5A2
:102A20003AB1254B1B6801FA00F42343224C236082
:102A300006E0214B1B6801FA00F4A3431E4C2360FF
:102A400010BD08B5002200921B4A009200F1080256
:102A5000009B1A440092009A116008BD08B500223C
:102A60000092154A009200F11402009B1A44009251
:102A7000009A116008BD30B500240023082802D157
:102A800042EA012401E042EA01440B4B00F1200537
:102A90002B441C6030BD08B501460020009006485C
:102AA00000902C2000EB9100009A104400900098B8
:102AB000006880B208BD000000740040014600209C
:102AC000FE4A106800F03800084310607047FB4968
:102AD000096821F00801F94A1160114609680143AB
:102AE00011607047F549096821F01001F34A11603F
:102AF00011460968014311607047F148EF49486089
:102B0000F04848607047EE48EC494860ED4848603E
:102B10007047EA48006940F08000E8490861704762
:102B2000E648006940F08000E449086170470420ED
:102B3000E249C96801F0010109B101200EE0DF4955
:102B4000C96801F0040109B1022007E0DB49C96846
:102B500001F0100109B1032000E00420704700B526
:102B600002460423FFF7E3FF034603E0FFF7DFFF1E
:102B70000346521E012B01D1002AF7D102B90523C9
:102B8000184600BD30B5044604254FF43020FFF749
:102B9000E6FF0546042D17D1C848006940F0020041
:102BA000C649086108464461006940F04000086178
:102BB0004FF43020FFF7D3FF0546C048006941F6C7
:102BC000FD710840BD490861284630BD10B5042498
:102BD0004FF43020FFF7C3FF0446042C16D1B7484A
:102BE000006940F00400B54908610846006940F0FA
:102BF000400008614FF43020FFF7B1FF0446AF48B2
:102C0000006941F6FB710840AC490861204610BDDF
:102C100000B502460423FFF78AFF034603E0FFF7EF
:102C200086FF0346521E012B01D1002AF7D102B9BB
:102C30000523184600BD10B504244FF43020FFF7DB
:102C4000E7FF0446042C16D19C48006940F00400BC
:102C50009A4908610846006940F0400008614FF455
:102C60003020FFF7D5FF04469448006941F6FB7118
:102C7000084092490861204610BD00208F49C9696B
:102C800001F0020109B1012000E00020704730B5D9
:102C9000A5250424FFF7F1FF00B100254FF43020F3
:102CA000FFF75DFF0446042C3AD1854883498860CC
:102CB000844888600846006940F0200008610846A2
:102CC000006940F0400008614FF43020FFF747FFF3
:102CD0000446042C1BD17948006941F6DF71084095
:102CE000764908610846006940F01000086176489E
:102CF0000580E002FFF733FF0446052C10D06F4833
:102D0000006941F6EF7108406C49086108E0052C44
:102D100006D06A48006941F6EF71084067490861CA
:102D2000204630BD78B506460C46042500200090AC
:102D3000E802FFF714FF0546042D24D15F4800691F
:102D400040F001005D4908613480E802FFF707FFA9
:102D50000546042D10D1B01C0090200C009908806D
:102D6000E802FFF7FCFE05465448006941F6FE7193
:102D700008405249086106E05048006941F6FE717A
:102D800008404E490861284678BD70B504460D4696
:102D90000426F002FFF7E3FE0646042E11D1474851
:102DA000006940F00100454908612580F002FFF705
:102DB000D6FE06464148006941F6FE7108403F498B
:102DC0000861304670BD70B505460E460424E00229
:102DD000FFF7C5FE0446042C17D1394837498860EF
:102DE000384888600846006940F0100008612E806D
:102DF000E002FFF7B4FE0446052C06D02F48006918
:102E000041F6EF7108402D490861204670BD2DE95B
:102E1000F04304464FF6FF763746B046B1460425E8
:102E2000E443E6B2C4F30727C4F307484FEA146942
:102E3000E802FFF794FE0546042D49D120481F49BA
:102E40008860204888600846006940F010000861EA
:102E5000FF2E06D01C4808300680E802FFF77FFEF0
:102E60000546042D08D1FF2F06D017480A300780E9
:102E7000E802FFF774FE0546042D0AD1B8F1FF0FF2
:102E800007D011480C30A0F80080E802FFF767FE79
:102E90000546042D0AD1B9F1FF0F07D00A480E30BC
:102EA000A0F80090E802FFF75AFE0546052D0FD066
:102EB0000248006941F6EF71084007E00020024037
:102EC00023016745AB89EFCD00F8FF1F6649086114
:102ED0002846BDE8F08330B5054604244FF4302081
:102EE000FFF73DFE0446042C41D160485E498860EE
:102EF0005F4888600846006940F020000861084685
:102F0000006940F0400008614FF43020FFF727FED1
:102F10000446042C22D15448006941F6DF71084070
:102F2000514908610846006940F0100008611DB170
:102F300000205049088002E0A5204E4908804FF447
:102F40003020FFF70CFE0446052C10D046480069DF
:102F500041F6EF7108404449086108E0052C06D0AD
:102F60004148006941F6DF7108403F490861204649
:102F700030BDF0B505460E46174604243B483A4995
:102F800088603B488860E002FFF7E9FD0446042CB6
:102F900019D13548006940F010003349086147F005
:102FA000F800304328433349891C0880E002FFF7CA
:102FB000D6FD0446052C06D02B48006941F6EF717A
:102FC0000840294908612046F0BD2748C0698008AB
:102FD00070472548006A704700202349096801F0BE
:102FE000200109B1012000E00020704729B11E4AEC
:102FF000126902431C4B1A6104E01B4A12698243A6
:10300000194B1A61704701460020012908D1164A60
:10301000D26902F001020AB1012008E0002006E0B6
:10302000114AD2680A400AB1012000E0002070472E
:103030000D49C860704704200B49C96801F00101BF
:1030400009B101200EE00849C96801F0040109B185
:10305000022007E00449C96801F0100109B103200A
:1030600000E0042070470000002002402301674573
:10307000AB89EFCD00F8FF1F10B50446FE4884422F
:1030800008D10121C014FFF705FA0021E014FFF771
:1030900001FAC4E0B4F1804F08D101210846FFF7DE
:1030A00006FA00210120FFF702FAB8E0F348844253
:1030B00008D101210220FFF7FAF900210220FFF7D1
:1030C000F6F9ACE0EE48844208D101210420FFF774
:1030D000EEF900210420FFF7EAF9A0E0E948844274
:1030E00008D101210820FFF7E2F900210820FFF7AD
:1030F000DEF994E0E448844208D101211020FFF772
:10310000D6F900211020FFF7D2F988E0DF48844289
:1031100008D101212020FFF7CAF900212020FFF764
:10312000C6F97CE0DA48844208D101214014FFF757
:10313000B1F900216014FFF7ADF970E0D548844281
:1031400009D10121C804FFF7A5F900214FF400209F
:10315000FFF7A0F963E0D048844209D101210805B6
:10316000FFF798F900214FF48010FFF793F956E02C
:10317000CA48844209D101214805FFF78BF9002193
:103180004FF40010FFF786F949E0C548844208D1A2
:1031900001214020FFF78BF900214020FFF787F93C
:1031A0003DE0C048844208D101218020FFF77FF92B
:1031B00000218020FFF77BF931E0BB48844208D131
:1031C00001218015FFF773F90021A015FFF76FF9B2
:1031D00025E0B648844209D101210804FFF75AF9D5
:1031E00000214FF48030FFF755F918E0B0488442D1
:1031F00009D101214804FFF74DF900214FF40030B7
:10320000FFF748F90BE0AB48844208D1012188045C
:10321000FFF740F900214FF48020FFF73BF910BD84
:1032200000220288944B98420ED0994B98420BD0C2
:10323000B0F1804F08D0914B984205D0904B984206
:1032400002D0904B984204D14FF68F731A404B88AE
:103250001A438D4B984207D08C4B984204D04FF6BE
:10326000FF431A40CB881A4302808B8883850B88E2
:103270000385814B98420BD0854B984208D08B4BED
:10328000984205D08A4B984202D08A4B984201D18D
:103290000B7A038601238382704770B500240022D5
:1032A0000023058C4FF6FE7635400584028C83881A
:1032B000048B4FF68F752C40B51E2C400D882C4387
:1032C000751E2A400D892A434D882A436A4DA8421B
:1032D0000BD06F4DA84208D0744DA84205D0744D54
:1032E000A84202D0734DA84213D14FF6F7752A4079
:1032F0004D892A434FF6FB752A408D882A434FF6A5
:10330000FF652B404FF6FF552B408D892B43CD8910
:103310002B4383800483CD888586028470BD70B57D
:10332000002400220023058C4FF6EF7635400584FB
:10333000028C8388048B48F6FF752C404FF6FF45BE
:103340002C400D884FF6FF7606EA05252C434FF6F4
:10335000DF752A400D8906EA05152A434D8806EADD
:1033600005152A43444DA84202D0494DA8421DD11B
:103370004FF67F752A404D894FF6FF7606EA051510
:103380002A434FF6BF752A408D8806EA05152A4361
:103390004FF6FF352B404FF2FF752B408D8906EA23
:1033A00085052B43CD8906EA85052B43838004835D
:1033B000CD880587028470BD70B5002400220023EB
:1033C000058C4FF6FF6635400584028C8388848B1C
:1033D0004FF68F752C404FF6FC752C400D882C4312
:1033E0004FF6FF552A400D894FF6FF7606EA052570
:1033F0002A434D8806EA05252A431F4DA84202D0DC
:10340000234DA8421DD14FF2FF752A404D894FF63A
:10341000FF7606EA05252A434FF6FF352A408D88B8
:1034200006EA05252A434EF6FF752B404DF6FF753B
:103430002B408D8906EA05152B43CD8906EA051533
:103440002B4383808483CD888587028470BD70B5CB
:10345000002200230024058C4EF6FF7635400584BB
:10346000038C8488828B48F6FF752A404FF6FF450F
:103470002A400D8820E00000002C0140000400409C
:1034800000080040000C0040001000400014004004
:1034900000340140004C0140005001400054014004
:1034A00000180040001C0040002000400040014087
:1034B00000440140004801404FF6FF7606EA05252A
:1034C0002A434DF6FF752B400D8906EA05352B433F
:1034D0004D8806EA05352B43FA4DA84202D0FA4D35
:1034E000A84208D14BF6FF752C408D894FF6FF7628
:1034F00006EA85152C4384808283CD88A0F840504D
:10350000038470BD828B4FF2FF331A408283828B1B
:103510004FF6FF7303EA01231A4382837047F0B525
:103520000C461546002200210026078C4EF6FF7C33
:1035300007EA0C070784828B018C4FF6FF7707EAB6
:10354000043640F6FF473A404FF6FF7707EA052773
:103550003A434FF6FF7707EA03373A43D94FB84269
:103560000ED0D94FB8420BD0B0F1804F08D0D74F12
:10357000B84205D0D64FB84202D0D64FB84206D195
:103580004DF6FF77394046F48057394305E047F65A
:10359000FF57394044F48057394382830184F0BD9A
:1035A000828B4FF6F3731A408283828B0A438283A5
:1035B0007047F0B50C461546002200210026078C06
:1035C0004FF6FF6C07EA0C070784828B018C4FF6DD
:1035D000FF7707EA04264FF60C773A404FF6FF775D
:1035E00007EA03172F433A43B64FB8420ED0B64FFF
:1035F000B8420BD0B0F1804F08D0B44FB84205D0DC
:10360000B34FB84202D0B34FB84206D14FF6FF577E
:10361000394046F48077394305E04FF2FF5739408F
:1036200044F48077394382830184F0BD028B4FF2EA
:10363000FF331A400283028B4FF6FF7303EA012324
:103640001A4302837047F0B50C461546002200214C
:103650000026078C4FF6EF7C07EA0C070784028BE5
:10366000018C4FF6FF7707EA041640F6FF473A4011
:103670004FF6FF7707EA03373A434FF6FF7707EA3B
:1036800005273A438F4FB8420ED08F4FB8420BD028
:10369000B0F1804F08D08D4FB84205D08C4FB84262
:1036A00002D08C4FB84206D14FF6DF77394046F052
:1036B0001007394305E04FF65F77394044F01007B3
:1036C000394302830184F0BD028B4FF6F3731A4035
:1036D0000283028B0A4302837047F0B50C461546FD
:1036E00000220021068C4FF6FE773E400684028BB6
:1036F000018C4FF60C7632407E1C06EA03162E43F0
:103700003243704EB0420ED06F4EB0420BD0B0F18B
:10371000804F08D06D4EB04205D06D4EB04202D001
:103720006C4EB04206D14FF6FD76314044F00106B2
:10373000314305E04FF6F576314044F00106314360
:1037400002830184F0BD70B505460C465D48854294
:103750000ED05D4885420BD0B5F1804F08D05B4854
:10376000854205D05A48854202D05A48854200D148
:1037700000E000BF208850B92389A28861882846CC
:10378000FFF7ABFFE1882846FFF79EFF25E0208882
:1037900004280AD12389A28861882846FFF753FFAD
:1037A000E1882846FFF742FF17E0208808280AD161
:1037B0002389A28861882846FFF7FBFEE188284616
:1037C000FFF7EEFE09E02389A28861882846FFF70B
:1037D000A6FEE1882846FFF795FE70BD2DE9F04171
:1037E00005460C4600260127608808B9022600E03D
:1037F0000026A088012801D1022700E001272088A7
:10380000A0B92389A28861882846FFF766FFE1886E
:103810002846FFF759FF23893A4631462846FFF7E5
:1038200012FFE1882846FFF701FF13E02389A288F1
:1038300061882846FFF707FFE1882846FFF7F6FE74
:1038400023893A4631462846FFF747FFE188284654
:10385000FFF73AFFBDE8F0810A884B881A438B884E
:103860001A43CB881A430B891A434B891A438B8915
:103870001A43A0F8442070474FF6FF718180002161
:103880000180C18041800172704700210180418028
:103890008180C180018141818181C1817047002186
:1038A00001804180012181800021C1800181704718
:1038B0000021018041808180C1800181418181811D
:1038C00070470000002C014000340140000400401B
:1038D00000080040000C004021B1028842F00102C3
:1038E000028004E002884FF6FE731A40028070479F
:1038F00031B1B0F8442042F40042A0F8442005E081
:10390000B0F84420C2F30E02A0F8442070471AB168
:1039100083890B43838102E083898B4383817047D2
:103920008182704741EA0203A0F8483070471AB11B
:1039300083890B43838102E083898B4383817047B2
:1039400001894FF6F8721140018170470A46002143
:1039500001894FF68F73194011430181704730B5CB
:1039600004460D4629462046FFF7F0FF208940F027
:103970000700208130BD2DE9F04104460D46164672
:103980001F46602D06D13B46012231462046FFF7F7
:103990005AFE05E03B46012231462046FFF79DFED8
:1039A00029462046FFF7D2FF208940F007002081FA
:1039B000BDE8F08130B50C4600210189C9B24FF64F
:1039C000FF7505EA0325154325432943018130BDD1
:1039D0002DE9F04105460E46174698460024434619
:1039E0003A4631462846FFF7E5FF2C894FF6F87036
:1039F000044044F007044FF68F70044044F0700414
:103A00002C81BDE8F081F0B504460D4616461F46F0
:103A10003B46324629462046FFF7CCFF208940F43A
:103A200080402081F0BD0185828270470A460021D6
:103A300001884FF68F731940114301807047F0B52C
:103A40000C4615461E460021002200230189028BE8
:103A5000038C4FF6F877394021434FF6FC473A4044
:103A600040F201173A434FF6DD773B404FF6FF77C0
:103A700007EA06172F433B43018102830384F0BD0D
:103A80000A460021018B4FF68F73194011430183C1
:103A900070470A460021018B48F6FF7319404FF624
:103AA000FF7303EA02231943018370470A4600218A
:103AB000818B4FF68F7319401143818370470A46FB
:103AC0000021818B48F6FF7319404FF6FF7303EA1C
:103AD000022319438183704721B1028842F080029A
:103AE000028004E002884FF67F731A40028070471C
:103AF00021B1828842F00402828004E082884FF67D
:103B0000FB731A408280704721B1828842F008021C
:103B1000828004E082884FF6F7731A4082807047F3
:103B200021B1828842F00102828004E082884FF64F
:103B3000FE731A40828070470A460021018B4FF6BF
:103B4000F77319401143018370470A460021018B26
:103B50004FF2FF7319404FF6FF7303EA0223194334
:103B6000018370470A460021818B4FF6F773194095
:103B70001143818370470A460021818B4FF2FF7306
:103B800019404FF6FF7303EA0223194381837047FC
:103B90000A460021018B4FF6FB7319401143018344
:103BA00070470A460021018B4FF6FF3319404FF64C
:103BB000FF7303EA02231943018370470A46002179
:103BC000818B4FF6FB7319401143818370470A467E
:103BD0000021818B4FF6FF3319404FF6FF7303EA44
:103BE00002231943818370470A460021018B4FF657
:103BF0007F7319401143018370470A460021018BEE
:103C0000C1F30E014FF6FF7303EA02231943018348
:103C100070470A460021818B4FF67F73194011438C
:103C2000818370470A460021818BC1F30E014FF654
:103C3000FF7303EA02231943818370470A46002178
:103C4000018C4FF6FD7319401143018470470A46F9
:103C50000021018C4FF6F77319401143018470471E
:103C60000A460021018C4FF6DF7319404FF6FF73AF
:103C700003EA02131943018470470A460021018CAC
:103C80004FF67F7319404FF6FF7303EA021319438F
:103C9000018470470A460021018C4FF6FF531940FA
:103CA0004FF6FF7303EA02231943018470470A4663
:103CB0000021018C4FF2FF7319404FF6FF7303EAA6
:103CC00002231943018470470A460021018C4DF6F6
:103CD000FF7319404FF6FF7303EA0233194301845F
:103CE000704730B5002301248C40A3B2048C9C4360
:103CF0000484048C02FA01F5ADB22C43048430BD77
:103D000030B5002304248C40A3B2048C9C4304846B
:103D1000048C02FA01F5ADB22C43048430BD70B5B9
:103D20000346002000241846183001258D40ACB20F
:103D30001D8CA5431D8409B1082909D100EB610040
:103D4000056825F0700505600568154305600EE0FF
:103D50000D1FC5F34E052844056825F4E0450560B0
:103D600005684FF6FF7606EA02263543056070BD0A
:103D700021B1028842F00202028004E002884FF67C
:103D8000FD731A400280704721B1028842F004029C
:103D9000028004E002884FF6FB731A4002807047ED
:103DA00021B1828842F08002828004E082884FF64E
:103DB0007F731A408280704702884FF6F7731A406B
:103DC000028002880A430280704782884FF68F7310
:103DD0001A40828082880A438280704702894FF6A7
:103DE000F8731A40028102890A43028170470289EE
:103DF0004FF67F731A40028102890A43028170479D
:103E0000818470478185704781867047018770473C
:103E100081877047A0F84010704702884FF6FF4333
:103E20001A40028002880A43028070470146888E49
:103E300070470146088F70470146888F70470146DA
:103E4000B1F8400070470146888C70470146088DE4
:103E5000704702460020138A0B400BB1012000E09E
:103E600000207047CA430282704730B502460020E6
:103E700000230024158A05EA0103958905EA010457
:103E800013B10CB1012000E0002030BDCA43028212
:103E90007047000010B50146002400220023481C92
:103EA00018B10F3008B1887B08B94FF0FF34BCB9A6
:103EB000487B0344887B0344002203E0481C805C69
:103EC0000344521C0C2AF9DB002204E001F110002B
:103ED000805C0344521C887B9042F7DC83F0FF0334
:103EE000D8B210BD10B500242348007830B3234861
:103EF0000068234948600E200870002048701E4862
:103F0000007888701C4802781E491D48083004F06B
:103F10009BFD30221A49222000F050F80446174831
:103F20000068401C154908600846006810F5807F4D
:103F300001D30020086000200F490870204610BD02
:103F400070B5044600250C4801780078401C0A4AE8
:103F500010700C4844541046007828B90A48D0E93B
:103F600000100A4AC2E9001003480078282801D14D
:103F7000FFF7B8FF284670BD280100202C01002063
:103F80008008002058080020900100203001002007
:103F9000002107E042F6E06100BF0A00A1F1010341
:103FA00099B2FAD10200A0F1010398B2F2D17047A0
:103FB0000020FA490860FA49086070472DE9F0418D
:103FC00004460F4615460026F5480068401C962119
:103FD00090FBF1F201FB1200F0490968884200D120
:103FE000761E2EBBEE48006800EBC000ED4901EBE9
:103FF000C0004473EA48006800EBC00001EBC00059
:104000008573E749096801EBC101E64A02EBC1018A
:1040100001F110002A46394604F016FDE048006818
:10402000401C962190FBF1F201FB1200DC49086074
:104030003046BDE8F0812DE9F0418CB005460E46D2
:104040001746984600243021684604F016FD06B154
:104050000FB94FF0FF3424B93A46314602A804F0B4
:10406000F3FC44B9CDF804808DF800503022694645
:104070000120FFF7A3FF20460CB0BDE8F08170B52A
:104080000446002504B96D1EA5B92E20207000201D
:10409000C4F80100C4F80500C4F80900C24AC3A16D
:1040A000601C05F097F9601C04F0F2FC0B2801D3AA
:1040B0006FF001051DB92046FFF7ECFEE073002DFF
:1040C00009DABB4804F0E4FC461C2B463246B849EA
:1040D0002120FFF7B0FFA07B103070BD2DE9F04725
:1040E00092B005460E4691469A46DDE91A780024BC
:1040F000302106A804F0C1FC1821684604F0BDFC7C
:1041000074B9CDE900780296CDF80C90CDF810A0E6
:104110001822694608A804F097FC18208DF81A00A8
:1041200044B9002007908DF81850302206A928467F
:10413000FFF744FF204612B0BDE8F0872DE9F043B9
:1041400097B005460E469146DDE91E7800243021E1
:104150000AA804F092FC2821684604F08EFC64B999
:10416000CDE900780296CDF81890282269460CA86F
:1041700004F06AFC28208DF82A0044B900200B9036
:104180008DF8285030220AA92846FFF717FF20464D
:1041900017B0BDE8F0832DE9F0418CB006460F461C
:1041A0001446984600253021684604F066FC07B1A5
:1041B0000CB94FF0FF3525B92246394602A804F064
:1041C00043FC5DB9CDF804808DF80060E0B28DF855
:1041D0000200302269463046FFF7F0FE28460CB058
:1041E000BDE8F08170B50546002472490968481C95
:1041F000C11700EBD1514912A0EB41216E4A126860
:10420000914200D1641E74B96C486A4909684554EA
:1042100068490968481CC11700EBD1514912A0EB4D
:104220004121644A1160002C09DA654804F030FC31
:10423000461C2346324662490E20FFF7FCFE20460C
:1042400070BD10B50146002001B9401E38B95A4A68
:104250001268584B1B689A4201D16FF0010078B97F
:10426000564A554B1B68D25C0A70534B1B685A1C4C
:10427000D31702EBD3535B12A2EB43234E4C2360C4
:1042800010BD70B50546002405B9641E3CB943480D
:10429000006843490968884201D16FF00104A4B95C
:1042A0003E48006800EBC0003E4A02EBC0014822D5
:1042B000284604F0C9FB39480068401C962190FB51
:1042C000F1F201FB120035490860204670BD70B55F
:1042D00004460D462A462146812002F00BFB0020B1
:1042E00070BD38480068384908603648001D0068CD
:1042F0004860344808300068886000207047F0B596
:104300008DB006460C4600272578302101A804F020
:10431000B4FB222D1BD1302E0BD128222B4903A810
:1043200004F092FB28208DF8060000208DF805008F
:1043300027E0312D25D1282203A9244804F084FB4D
:1043400001208DF8060000208DF8050019E01F48B7
:10435000405D80B1207A022803D1207A1B4948555C
:1043600005E0207A012802D1207A1849485500201A
:104370008DF8050002E005208DF8050001208DF87C
:1043800006006068029020788DF80400302201A9B0
:104390003046FFF713FE38460DB0F0BD480100204F
:1043A0004C010020C4080020B00800202573000044
:1043B00051A6000858010020540100205806002092
:1043C00063A60008E8F7FF1FB4330020F432002092
:1043D0002DE9F0438DB007468846002400253E466F
:1043E000302101A804F049FB17B1B8F1000F01D149
:1043F0004FF0FF34ECB9002506E0FC4951F82500E8
:1044000001A941F825006D1C042DF6DBF848016870
:104410003160416871608068B060102201A906F1C6
:104420000C0004F011FBF3490968F1612020C8F881
:104430000000002C0ADAF04804F02AFB00F1010920
:1044400023464A46EC492120FFF7F5FD20460DB0F2
:10445000BDE8F08370B506460C460025E749606864
:104460000844E74908604FF4006208460168E548DF
:1044700004F0EAFA284670BD2DE9F04107460D46E2
:1044800000260024FEF739FBDC4A69688818FEF72D
:1044900079FB00BF12E0DC48FEF761FB052802D083
:1044A0003420FEF7C5FDD54B6A681A4402EB840040
:1044B000D44A52F82410FEF735FC641CB4F5007F92
:1044C000E9DBFEF726FB3046BDE8F0812DE9F0413F
:1044D00080460D4600260027CC4C30222946204637
:1044E00004F0B2FAA088C0F30A07C949E068096875
:1044F00088420FD9C3493944C54BA2681B68C81804
:1045000004F1100104F0A0FAC149A0680968084448
:10451000BF490860BE49E0680968884202D10020AE
:10452000BB4908603046BDE8F0812DE9F0438DB00D
:1045300081460D4600270024A046302101A804F042
:104540009CFA0026AF4EE86804901C210498B0FB4A
:10455000F1F800BF14E01C200390C4EBC40006EB8C
:1045600080011C2205A804F06FFA302201A9532013
:10457000FFF724FDA74800681C30A6490860641CAA
:104580004445E8DB1C210498B0FBF1F201FB12006A
:10459000C0B10498B0FBF1F201FB12000390C4EB30
:1045A000C40006EB800105A8039A04F04DFA3022FE
:1045B00001A95320FFF702FD9649039809680844B2
:1045C00094490860934904980968884202D1002000
:1045D0009049086038460DB0BDE8F0832DE9F04100
:1045E00005460E4600272C46142E11D1227C21466A
:1045F000894804F029FA207C87490874607C487453
:10460000A07C88748548D0E90010854AC2E9001072
:104610003846BDE8F0812DE9F04106460C460027FA
:104620000025492E04D0502E0FD0512E1FD10FE05F
:10463000207818B901207B49086005E0207801281E
:1046400002D100207749086012E0FCF78FFB0FE0F1
:104650002568002D0ADD282D08DC4FF47A7090FBC8
:10466000F5F0192190FBF1F06F49086000E000BF00
:1046700000BF6E4804F00CFA00F101086A48424697
:104680006A4903683046FFF7D6FC3846BDE8F0813A
:104690002DE9F04106460C4600270025632E04D084
:1046A000642E0FD0652E18D10DE0207818B90120A6
:1046B0005F49086005E02078012802D100205C49AC
:1046C00008600BE00AE02568002D05DDB5F57A7F6E
:1046D00002DCA8B2FCF785FD00E000BF00BF554832
:1046E00004F0D6F900F101085148424651490368E7
:1046F0003046FFF7A0FC3846BDE8F08170B50646AD
:104700000C460025207860B901214B48FDF799FC43
:104710004FF4C870FFF73CFC01214748FDF793FCBC
:1047200006E02078012803D101214348FDF78BFCE6
:10473000284670BD70B506460C460025207858B94D
:1047400002213D48FDF77DFC6420FFF721FC02219A
:104750003948FDF778FC0DE0207801280AD10421C2
:104760003548FDF76EFC6420FFF712FC0421324847
:10477000FDF769FC284670BD70B506460C4600255D
:10478000207820B908212C48FDF75BFC06E0207852
:10479000012803D108212848FDF755FC284670BDA3
:1047A0007FB506460C46002500200090019002903F
:1047B000039010222146684604F046F91F4800780D
:1047C00004283DD14FF4FA610020FEF73AF94FF486
:1047D000FA610020FEF742F901210020FEF7F4F80B
:1047E00001211020FEF7F0F83CE000000020030853
:1047F000B43300201C3300207AA6000800C0000853
:1048000064010020C4330020A0860100283C002061
:104810006001002078010020B008002090010020F5
:1048200040010020980100208C0100208CA6000887
:104830009C010020A3A600080008014050010020B0
:10484000BDF808100020FEF7FCF8BDF80A100020A3
:10485000FEF704F901210020FEF7B6F8012110202F
:10486000FEF7B2F8284604B070BD70B592B00546A8
:104870000C4600263021684604F0FFF8614903C960
:10488000CDE90C01604A07CA0FAB07C35F48006857
:10489000401C18B140208DF8380002E023208DF82C
:1048A000380018220CA902A804F0CEF86068019024
:1048B00020788DF8000000208DF8010018208DF878
:1048C0000200302269462846FFF778FB304612B0D6
:1048D00070BD70B50024402298214D48006801F059
:1048E000E3FB4FF44051012001F061FC48480068AF
:1048F000FFF7D0FA46490968C97B884276D1444817
:104900000068447B632C2ED00EDC562C57D006DC7E
:104910001C2C18D0352C1FD0552C65D148E0572CB5
:1049200054D0582C60D158E0682C2CD006DC642C74
:104930001AD0652C19D0672C56D11DE0692C29D0CE
:10494000702C51D12DE032480068817B30480068DE
:104950001030FFF743FE47E02D4801681031204634
:10496000FFF783FF40E000BF00BF29480168103116
:104970002046FFF78DFE37E02548016810312046BC
:10498000FFF7BCFE30E02248016810312046FFF7F7
:10499000D1FE29E01E48016810312046FFF7ECFEE9
:1049A00022E01B48016810312046FFF7F9FE1BE0AA
:1049B0001748016810312046FFF74CFD14E01448F9
:1049C000016810312046FFF757FD0DE010480168DF
:1049D00010312046FFF77AFD06E00D4801681031DE
:1049E0002046FFF7A2FD00BF0AE0FFE7094804F0F8
:1049F0004FF8451C23462A4606492120FFF71BFB9A
:104A000070BD000038010020B433002000200308EE
:104A10005C010020BDA6000870B505460C46A2B298
:104A20004FF48C71284601F025FB4021022001F053
:104A300082FD022001F006FC204670BD02460023E4
:104A4000402900D94021002304E00448C05C1070D4
:104A5000521C5B1C8B42F8D308467047EC3C00208C
:104A600010B58C48D0E900208B49D1E90031D31A28
:104A700060EB010050229A1A70F1000007D28748BB
:104A8000407C012803D103208549087008E0814853
:104A9000D0E90010804AC2E9001004208049087063
:104AA0007F480078042811D14FF4FA610020FDF707
:104AB000C8FF4FF4FA610020FDF7D0FF012100206C
:104AC000FDF782FF01211020FDF77EFF10BD10B51C
:104AD000282200236F4903C903F058FF00214A40F0
:104AE0004B401A4307D16E4800786C49C8741422B1
:104AF0001A20FFF763FA10BD10B56648D0E9003000
:104B0000684A06CA5B1A60EB02005A1E70F1000088
:104B100009D36548807B012805D1614800780328C6
:104B200001D1FFF7DFF910BD10B560480268D31757
:104B3000584903C903F02AFF00214A404B401A4359
:104B400005D15B480068012801D1FCF70FF910BDC1
:104B500010B501218807FFF788F990B1FFF780FFB2
:104B6000FFF7B5FFFFF7E0FF4A48D0E90020521CED
:104B700040F100004749C1E9002001218807FFF703
:104B800085F910BD2DE9FC4701214A48FFF76DF971
:104B900070B349480068012826D148480168484850
:104BA00004F007F8814647480168484603F0CFFF04
:104BB0000646454903F0CBFF054604F0DFF90446FD
:104BC0004248006804F0DAF907464148006804F0FA
:104BD000D5F980462F4803C823463A46CDE900015F
:104BE00041466620FFF77AFA01213248FFF74EF975
:104BF000BDE8FC8770B501213648FFF736F900287B
:104C000047D03548008828B133480088401E3249D3
:104C100008803AE0092030490880FCF795FC0446FA
:104C2000FCF7D6FC0546284604F089F92B490860B4
:104C3000204604F084F92A49086028480168284879
:104C4000006800F0C5F82748007840F002002549C8
:104C5000087025482549097840F82140244823490F
:104C6000097840F8215021480078401C1F490870FD
:104C700008460078032801DB00200870FCF7FEFCE2
:104C8000FCF768FDFCF79DFD00BF01211148FFF70F
:104C9000FDF870BD9001002040010020B008002008
:104CA0005001002030010020F43200208C0100204F
:104CB00098010020000C00409C010020DC01002035
:104CC00000003443B40100200000C842B0010020BD
:104CD000AC01002000100040800100208401002071
:104CE00088010020080000203805002082010020F3
:104CF000440500202DE9F04704460F46002004F04B
:104D00001EF980463946206A03F01BFF8246414661
:104D100003F0C5FEE060E168206803F018FF8146FB
:104D2000A06904F00CF98246E16803F0B8FE804601
:104D300004F024F9A0612149E069086020491F4876
:104D4000006804F081F905D31E491C48006804F08E
:104D500071F901D200206060A06904F0F0F880468B
:104D6000616803F0F4FE0546D4E9030103F0E9FEAF
:104D70008046A16803F0EBFE0646E0682061294604
:104D8000484603F08CFE8046314603F088FEE06121
:104D90000D49E069096804F057F902D20A48006831
:104DA000E0610A49E069096804F044F902D2074861
:104DB0000068E061E069BDE8F0870000A80100201C
:104DC0000000A0400000A0C0A0010020A40100201D
:104DD0002DE9F35F87480078E8B187480168874884
:104DE000006803F0B4FE0446854801688548006801
:104DF00003F0ADFE0546214603F0DBFE8249086064
:104E0000824801688048006803F0D3FE804908604A
:104E1000002078490870DDE9000103F040FE0446F7
:104E20004FF07C5103F093FE7A490860DDE9000100
:104E300003F087FE78490860764800687749086083
:104E400075480068764908607148016874480068D0
:104E500003F07DFE734908600846006804F0BBF863
:104E600080464FF01132704B03F088FF04460D4628
:104E70006C4801686D48006803F011FE804604F03C
:104E8000AAF8064622462B4603F0D1FE824604F0DD
:104E9000B5F866490860634801684FF07C5003F03C
:104EA00056FE044661480168204603F0F8FD60495B
:104EB00008600846006804F08EF8064605F048FBD6
:104EC000044604F09BF85B4908605948006804F008
:104ED00082F8064605F088FA044604F08FF8564931
:104EE0000860494801684D48006803F030FE0546F7
:104EF00051480168284603F02AFE04464F480168DD
:104F0000204603F0CCFD4D4908603F480168434806
:104F1000006803F01CFE054646480168284603F079
:104F200016FE044646480168204603F0B8FD444991
:104F300008600846006880F00040424908603F4829
:104F40000068414908603F48006804F044F806469C
:104F50003E4A3F4B03F012FF044604F04FF8394934
:104F600008603948006804F036F80646374A384B7E
:104F700003F004FF044604F041F833490860224876
:104F800001682648006803F0E2FD044631480168E4
:104F9000204603F00EFE304908602E480168214883
:104FA000006803F006FE2D490860154801681F4897
:104FB000006804F049F808D2294801681B480068D5
:104FC00003F0BFFD1949086011E00D48006880F04A
:104FD000004416480168204604F036F807D22048FD
:104FE00001681248006803F05AFD10490860BDE8E6
:104FF000FC9F000020020020CC010020EC010020DA
:10500000DC010020D401002004020020C80100209F
:10501000080200200C02002010020020FC010020E9
:1050200000020020F00100201111813FB401002096
:1050300018020020F4010020F8010020C401002023
:10504000C0010020AC010020B00100200AD7A370ED
:105050003D0AF33FE8010020B8010020BC01002018
:10506000E401002001465A484078594A127800EB82
:10507000022000B208805648C078554A927800EB6A
:10508000022000B2488052484079514A127900EB20
:10509000022000B288804E48C0794D4A927900EBD8
:1050A000022000B2C8804A48407A494A127A00EB8E
:1050B000022002B20A814648C07A454A927A00EB41
:1050C000022002B24A814248407B414A127B00EBF7
:1050D000022000B288813E48C07B3D4A927B00EBB3
:1050E000022002B2CA813A48407C394A127C00EB65
:1050F000022002B20A823648C07C354A927C00EB1C
:10510000022000B2C8823248407D314A127D00EB55
:10511000022000B288822E48C07D2D4A927D00EB8D
:10512000022048822A48C07E0006294A927E00EB6F
:105130000240274A527E00EB0220254A127E10448C
:1051400088610020704710B503460C46214800785E
:1051500030B101280AD002280ED0032833D114E040
:10516000882B02D101201B4908702DE0AF2B02D102
:1051700002201849087027E01748036003201549EA
:1051800008700020154908601EE0144800681249A4
:10519000096888420ED100200E490870032C03D103
:1051A0000F48FFF75FFF04E0052C02D10D48FFF721
:1051B00059FF09E0094801680068401C074A10606F
:1051C0000348435400E000BF00BF002010BD0000B2
:1051D000583C0020340200202C0200203002002025
:1051E000983C0020B43C002010B504462CB90120A6
:1051F000F64909680882002010BDF5490968086869
:105200008047F24800680A30F6E710B5EF480068BA
:10521000C078F0494978884213DCEC48006880780F
:1052200078B9EA480068808858B9E8480068C078CA
:10523000E64909688872E64909684868804700209D
:1052400010BD0220FCE710B504462CB90120DF494F
:1052500009680882002010BDDD4909688868804718
:10526000DA4800680C30F6E710B5D84B1B68D978DF
:10527000D64B1B685879D84B1B689A6990470446EF
:10528000D2480068807AE8B13CB9D048006800791B
:1052900018B9CE480068807808B1022010BD8CB9DA
:1052A000CB490968C8688047C84800684079C74941
:1052B0000968C872C5480068C078C449096808739D
:1052C0000020EBE70220E9E710B504462CB90220E4
:1052D000BE4909680882002010BD0020BF4908802F
:1052E000BA480068007800F07F0018BBB749096829
:1052F000487A00F0200131B1B849097841F0020143
:10530000B64A117005E0B549097801F0FD01B34ACC
:10531000117000F0400131B1B049097841F001014C
:10532000AE4A117005E0AD49097801F0FE01AB4AC3
:1053300011703AE0A5480068007800F07F0001286D
:1053400001D1A648C8E7A1480068007800F07F00B6
:10535000022828D19D4A1268517901F00F0001F00E
:1053600080027AB19E4B03EB8002D2F8002C02F04F
:105370003002102A16D1994A127842F00102974B56
:105380001A700FE0964B03EB8002D2F8002C02F467
:105390004052B2F5805F05D1904A127842F0010286
:1053A0008E4B1A7001E0002096E789490968086968
:1053B00080478A4890E72DE9F047844800680078E4
:1053C00000F07F08B8F1000F0AD180480068407AE9
:1053D00000F0DF007D49096848720020BDE8F087D1
:1053E000B8F1020F7ED179480068408818B9774833
:1053F0000068007908B10220F0E7DFF8D89173481F
:105400000068477927F080052C467048006840798D
:1054100000F0800038B1724901EB8400D0F8000C34
:1054200000F0300606E06E4901EB8400D0F8000C75
:1054300000F4405699F80000A84204D91EB1634810
:105440000068807A08B90220C8E707F0800080B1C0
:10545000634901EB8400D0F8000C00F03000102804
:105460004BD1E0B200F0FFFFE0B2302100F081FE4E
:1054700043E05B4901EB8400D0F8000C00F440509D
:10548000B0F5805F39D1E4B9564A92F82C10E0B2F9
:1054900001F073F8524A02EB8401D1F8001C4BF67C
:1054A0008F7201EA020080F4805080F4005040F4D2
:1054B000004141F080014A4B03EB8402C2F8001C1A
:1054C0001BE0E0B200F0B7FF454A02EB8401D1F8DF
:1054D000001C4BF68F7201EA020080F4805080F4C9
:1054E000005000E00FE040F4004141F080013C4BEF
:1054F00003EB8402C2F8001C00BF35490968486903
:10550000804700206AE700BF022067E72DE9F041ED
:105510002E480068467926F080073C462B480068F4
:10552000407900F0800038B12D4901EB8400D0F8BB
:10553000000C00F0300506E0294901EB8400D0F8AA
:10554000000C00F4405523480078A04208D91F48B9
:105550000068408820B91DB11C480068807A10B9E5
:105560000220BDE8F08106F08000A0B11C4A02EBE9
:105570008401D1F8001C48F6BF7201EA020080F0F5
:10558000100040F4004141F08001154B03EB840210
:10559000C2F8001C14E0124A02EB8401D1F8001C8E
:1055A0004BF68F7201EA020080F4805040F4004113
:1055B00041F080010A4B03EB8402C2F8001C00BFDB
:1055C00003490968886980470020CAE74002002033
:1055D0004C020020B00200204402002036020020CD
:1055E00000500040B402002010B5F7480068407A2F
:1055F00040F02000F44909684872F4490968C86914
:105600008047002010BD10B50246EF480068438A6D
:1056100032B98888C01AEC4C24682082002010BD62
:1056200008681844FBE72DE9F041E748006800F1FD
:1056300010042688A068C0B1BEB1A588B54200D9C3
:105640003546A8B2A168884707462088401B2080BD
:10565000608828446080002000F061FF8046AAB284
:105660004146384600F020FD00BF208850B14FF47D
:105670004050D74908800021084600F05CFF3020E8
:10568000D44908802088A188884204DB0320CE49C1
:105690000968087218E02088002804DD0520CA493E
:1056A0000968087210E0208870B90620C6490968A8
:1056B00008720021C848006880B2801CC74A42F8BE
:1056C00010103020C3490880BDE8F0812DE9F04773
:1056D000BD48006800F110052E88BB480068077AB5
:1056E000D6B9042F18D1BE48007801280FD1002167
:1056F000B948006880B2801CB84A42F810103020C7
:10570000B449088000BF0020B549087003E00727AE
:105710001020B049088027E0AC88A64201D80420B8
:1057200000E002200746B44200D93446A0B2A9687E
:1057300088478046002000F0E7FE8146A2B2494635
:10574000404600F097FCA1B2002000F0F4FE28884B
:10575000001B288068882044688030209D4908808C
:1057600000029B49088000BF974909680F72BDE895
:10577000F08770B502269448006844789248006823
:10578000007800F07F00002844D1092C03D1FFF7F6
:105790003CFD06465FE0052C14D18B480068C078BC
:1057A0007F280BDC88480068807838B98648006814
:1057B000808818B984480068807A08B1082565E0B7
:1057C000002648E0032C0ED17F480068C0780128ED
:1057D00007D17D480068808818B9FFF705FF0646A5
:1057E00039E0022637E0012C35D177480068C078CF
:1057F00001280DD174480068808848B97248006853
:10580000407A00F0200018B1FFF7D5FD064622E0EF
:10581000022620E06C480068007800F07F00012834
:1058200005D10B2C17D1FFF71FFD064613E0664884
:105830000068007800F07F0002280BD1012C03D112
:10584000FFF7B9FD064606E0032C04D1FFF75EFE24
:10585000064600E002264EB1E0B2624A1268516983
:1058600088470646032E01D109250FE00EB1082511
:105870000CE0062500215848006880B2801C574A79
:1058800042F8101030205349088000BF4E49096883
:105890000D7270BD2DE9F84F4B4800684578002720
:1058A000BA46062D1BD148480068007800F07F00FA
:1058B000002813D1444909688878012803D149494F
:1058C0000968CF690AE0022803D1464909680F6ACE
:1058D00004E0032802D1434909684F6AADE0002D76
:1058E00067D1394800684088002862D1364800688E
:1058F000C08802285DD1344800680079002858D15A
:1059000031480068007800F07F0030B92E48006808
:10591000808810B9AFF24F678FE02B48006800789D
:1059200000F07F00012811D12749096848792D49E5
:1059300009688A690021904700287ED122480068C2
:10594000807A002879D0AFF27F6776E01E48006841
:10595000007800F07F0002286FD11B480068407972
:1059600000F00F0618480068407900F070091648EA
:105970000068407900F0800038B11B4901EB8600D7
:10598000D0F8000C00F0300806E0174901EB860063
:10599000D0F8000C00F4405814480078B0424CD9BC
:1059A000B9F1000F49D1B8F1000F46D0AFF2E76767
:1059B00043E0082D1CD104480068007800F07F0007
:1059C000D8BBAFF2DB7738E0400200204C02002069
:1059D0005002002052020020505C00400060004055
:1059E000380200204402002000500040B002002095
:1059F0000A2D22D1C5480068007800F07F000128F8
:105A00001BD1C2480068807AB8B1C048006840889D
:105A100098B9BE480068007978B9BC480068C08869
:105A200001280AD1B94909684879B94909688A69D8
:105A30000021904708B9AFF2F17757B1B348006839
:105A4000A0F812A0B148006887610020B847002480
:105A50000FE0AE4A12685078AD4A12681169884763
:105A60000446032C05D10920A84909680872BDE83D
:105A7000F88FA6480068008A4FF6FF71884204D16B
:105A80000920A24909680872F1E7022C03D09F4857
:105A90000068008A20B908209C4909680872E6E776
:105AA0009A480068007800F08000E0B397480068EA
:105AB000C088009095480068008A0099884204D9FF
:105AC000924900980968088223E090480068008A9B
:105AD0008E490968C98888421BDA8C480068008AA8
