:020000040800F2
:100000004044002089210008F5010008F70100089C
:10001000FB010008FF0100080302000800000000C7
:1000200000000000000000000000000007020008BF
:1000300009020008000000000B0200080D02000881
:10004000A3210008A3210008A3210008A321000880
:10005000A3210008A3210008A3210008A321000870
:10006000A3210008A3210008A3210008A321000860
:10007000A3210008A3210008A3210008A321000850
:10008000A3210008A3210008A3210008A321000840
:100090000F020008A3210008A3210008A3210008E3
:1000A000A3210008A3210008A3210008A321000820
:1000B000FD55000809190008E5180008A3210008EB
:1000C000A3210008A3210008A3210008A321000800
:1000D000A3210008F71F0008A321000871200008D1
:1000E000A3210008A3210008A3210008A3210008E0
:1000F000A3210008A3210008A3210008A3210008D0
:10010000A3210008A32100082D560008A321000800
:10011000A3210008EB20000843560008A321000893
:10012000A3210008A3210008A3210008A32100089F
:10013000DFF80CD009F016FF004800474501000821
:10014000404400201F4C2646002500F000FA04F031
:10015000F8FA01201C49087032E01C48408A0A2144
:1001600090FBF1F71948B0F91600642190FBF1F803
:100170001648B0F9140090FBF1F93B464246494657
:1001800013A00BF0E3FF022006F066FE202817D133
:10019000204604F0A6FA98B9204604F0A0F9051EFE
:1001A0000ADA134809F090FA471C2B463A461049E0
:1001B000212004F070F903E02946304605F082F969
:1001C000CBE700006004002080010020683D002093
:1001D000696D755F646174615F352D2D502F522FED
:1001E000593A2564202564202564200D0A0000006A
:1001F0005CD20008704700BFFEE700BFFEE700BF0B
:10020000FEE700BFFEE7704770477047704710B5C4
:1002100007F0C4F910BD10B5002007F0A2FB10BD17
:100220000CB50020019000906C48006840F48030CC
:100230006A49086000BF6948006800F40030009017
:100240000198401C0190009818B90198B0F5A06F72
:10025000F1D16248006800F4003010B10120009034
:1002600001E0002000900098012843D15C4800681C
:1002700040F010005A4908600846006820F003006A
:1002800008600846006840F0020008605348406873
:10029000524948600846406848600846406840F453
:1002A000806048600846406820F47C10486008463A
:1002B000406840F4E81048600846006840F08070EC
:1002C000086000BF4548006800F000700028F9D0C1
:1002D0004248406820F003004049486008464068B2
:1002E00040F00200486000BF3C48406800F00C004D
:1002F0000828F9D10CBD10B5FFF792FF10BD10B55D
:100300003648006840F001003449086008464068FB
:10031000344908403149486008460068324908407D
:100320002E4908600846006820F4802008600846CE
:10033000406820F4FE0048604FF41F008860FFF71B
:10034000DAFF4FF000602949086010BD10B50021A8
:1003500000200022214B5B6803F00C0121B104292D
:1003600006D0082928D107E0214B224C236027E042
:100370001F4B204C236023E0184B5B6803F4701084
:10038000164B5B6803F48032022303EB904022B9E2
:10039000194B4343174C23600DE0104B5B6803F48B
:1003A000003323B1144B4343124C236003E0104B42
:1003B0004343104C236003E00D4B0E4C236000BF01
:1003C00000BF064B5B68C3F303130C4CE15C094BA5
:1003D0001B68CB40074C236010BD0000001002409A
:1003E000002002400000FFF8FFFFF6FE08ED00E0ED
:1003F00000127A005400002000093D00580000203F
:10040000704708B502F0EEF84FF4803002F00AF9B8
:1004100002F047F98B49087008460078012827D177
:10042000102002F08FFD022002F078FD002002F083
:100430007EF9002002F08DF94FF4806002F080F91F
:100440004FF4E0114FF4803002F054F9012002F033
:100450005DF900BF392002F008F90028FAD0022027
:1004600002F057F900BF02F05DF90828FBD101E066
:1004700000BFFEE70121080702F02FFAFFF7C0FFD7
:100480000121082002F01CFA4FF48040ADF8000072
:1004900002208DF8020010208DF8030069466A489A
:1004A00001F052FF0121102002F00AFA49F2030084
:1004B000ADF8000003208DF8020010208DF8030035
:1004C0006946624801F040FF08BD10B5002002F007
:1004D00057F90121C80502F000FA10BD08B54FF424
:1004E000407001F063FE14208DF8000001208DF8AB
:1004F000010000208DF8020001208DF803006846FD
:1005000001F059FE08BD38B5002401211D2002F07C
:10051000D7F94FF4C360ADF8000003208DF8020056
:1005200010208DF803006946494801F00DFF4FF493
:100530004070ADF8000010208DF8030003208DF806
:1005400002006946404801F0FFFE204638BD10B564
:1005500000214FF0006001F060FEFFF752FF00F055
:10056000B7FD00F0C7FDFFF7CEFF4FF4E13001F01B
:1005700055FC4FF4E13001F09DFC4FF4E13001F007
:10058000EDFC01F0D3FB00F038FF10BD7047704761
:10059000704708B50121102002F092F94FF44C6029
:1005A000ADF8000010208DF8030003208DF8020044
:1005B0006946264801F0C8FE08BD30B50B4600214B
:1005C00000BF16E00A24B4EB107F05D9302404EBF9
:1005D000107403F8114005E0412404EB10740A3C48
:1005E00003F81140000100254C00641C1D554C1CF3
:1005F000E1B29142E6DB30BD70B516480468001DDB
:100600000568001D0668344454B10822124920468A
:10061000FFF7D3FF0422104910312846FFF7CDFF22
:1006200070BD10B504462CB14FF48041064801F06E
:100630003AFF04E04FF48041034801F032FF10BD5F
:100640007047704768000020000C01400010014016
:1006500000080140E8F7FF1FE602002008B501216D
:10066000042002F02DF94FF44060ADF80000102096
:100670008DF8030003208DF802006946974801F0C9
:1006800063FE4FF44061954801F00BFF08BD10B5C3
:100690009248001D006820F470409049091D0860D0
:1006A0000846006840F44050086001208C4908600A
:1006B0008C49C1F8A801042001F051FB00208849B1
:1006C0000860042001F04BFB00208649C1F8A80116
:1006D00010BD10B58148001D006820F470407F49AE
:1006E000091D08600846006840F44050086000207A
:1006F0007B49091F08607B49C1F8AC01042001F067
:100700002EFB01207649091F08607649C1F8AC012B
:10071000042001F024FB10BD10B500246F48001D1B
:10072000006820F470406D49091D086008460068A3
:1007300040F40040086001206949086001F00FFBA7
:1007400001206849C1F8A80101F009FB07E0601C1D
:10075000C4B2FA2C03DDFFF7BCFF012010BD6048D6
:10076000803800680028F2D15D49091F086000BF89
:10077000F4E710B500205A49091F08605748001DCA
:10078000006820F470405549091D0860084600685B
:1007900040F44050086000205249C1F8AC010220EA
:1007A00001F0DDFA01204E49091F0860022001F026
:1007B000D6FA00204B49C1F8A80110BD10B50020A1
:1007C0004749091F08604548001D006820F4704033
:1007D0004249091D08600846006840F4405008601E
:1007E00001204049C1F8AC01022001F0B8FA012013
:1007F0003B49091F0860022001F0B1FA0020394985
:10080000C1F8A80110BD70B504463448001D006849
:1008100020F470403149091D08600846006840F422
:100820004050086000202E49091F086000251DE087
:10083000E00918B101202A49086002E00020284997
:1008400008606006040E022001F089FA01202449A4
:10085000091F0860022001F082FA00202149C1F836
:10086000A801022001F07BFA681CC5B2082DDFDB6D
:1008700070BD70B5054600241848001D006820F4BE
:1008800070401649091D08600846006840F40040A1
:100890000860002617E000201149091F08600220A7
:1008A00001F05DFA01200F49C1F8A8016006040EAD
:1008B0000B488038006808B1601CC4B2012001F008
:1008C0004EFA701CC6B2082EE5DB15B9FFF776FFAD
:1008D00001E0FFF74EFF204670BD0000000C014014
:1008E000AC8121420080214210B500240020FE4945
:1008F00048670021FC488167FC49C167FC48FA4908
:10090000C1F880000021F848C0F88410F949C0F807
:100910008810F948F4494860F848C1F88C00C1F8DB
:100920009000F74AF749F04807F076F8204610BDE6
:100930000FB42DE9F84F00200090BDF9280009F010
:1009400028F982460022F04B09F034F806464FF0B1
:100950002042EE4B09F02EF880460022EC4B09F0C5
:100960009BF8044609F08CF9DF498860BDF9360030
:1009700009F00FF980464FF03332E64B09F01AF8D0
:1009800006460022E24B09F087F8044609F078F9A0
:10099000D5490862BDF9300009F0FBF882464FF0F6
:1009A0006632DD4B09F078F806460022DB4B09F091
:1009B00001F804460022DA4B09F06EF8804609F08F
:1009C0005FF9C9494861BDF92A10484209F0E1F8C8
:1009D00006460022CC4B08F0EDFF80464FF0204247
:1009E000CA4B08F0E7FF82460022C94B09F054F8D1
:1009F000044609F045F9BC49C860BDF938104842C1
:100A000009F0C7F880464FF03332C24B08F0D2FFEE
:100A100006460022BE4B09F03FF8044609F030F9C3
:100A2000B1494862BDF93210484209F0B2F80646B1
:100A30004FF06632B84B09F02FF880460022B74BD2
:100A400008F0B8FF04460022B54B09F025F88246AD
:100A500009F016F9A4498861BDF92C10484209F043
:100A600098F806460022A84B08F0A4FF80464FF0F5
:100A70002042A64B08F09EFF04460022A44B09F03A
:100A80000BF8824609F0FCF897490861BDF93A1065
:100A9000484209F07EF806464FF033329D4B08F08D
:100AA00089FF804600229A4B08F0F6FF044609F0C1
:100AB000E7F88D498862BDF93410484209F069F8B9
:100AC00006464FF06632944B08F0E6FF804600225F
:100AD000924B08F06FFF04460022914B08F0DCFFB8
:100AE000824609F0CDF88049C861854A85497E482B
:100AF00007F0A0F80C228349602003F08FFC0098D7
:100B0000BDE8F80F5DF814FB70B506460C461546B7
:100B1000FFF7BDFD3046FFF776FEFFF7FDFD2046EF
:100B2000FFF771FEFFF7F8FD2846FFF76CFEFFF7B1
:100B3000F3FDFFF7CEFD70BD70B504460D46FFF71F
:100B4000A6FD2046FFF75FFEFFF7E6FD06462846B6
:100B5000FFF759FEFFF7E0FD0646FFF798FD611C21
:100B6000C8B2FFF750FEFFF7D7FD06460020FFF79B
:100B700080FE0646FFF7ADFD304670BD10B5002281
:100B80006B21D020FFF7C0FF06221A21D020FFF7EB
:100B9000BBFF18221B21D020FFF7B6FF00221C212B
:100BA000D020FFF7B1FF02223721D020FFF7ACFFA2
:100BB00000226A21D020FFF7A7FF10220A21182067
:100BC000FFF7A2FF322001F0EEF811220A211820CF
:100BD000FFF79AFF10BD2DE9F0438DB000260027E6
:100BE000B046002566E0FFF752FDD020FFF70BFE70
:100BF000FFF792FD3B20FFF706FEFFF78DFDFFF7A5
:100C000046FDD120FFF7FFFDFFF786FD002410E031
:100C10000D2C06D10020FFF72CFE01A921F81400AD
:100C200005E00120FFF725FE01A921F81400601C52
:100C300084B20E2CECDBFFF74CFDBDF81600BDF8BE
:100C4000141000EB012000B2ADF82C00BDF81A0022
:100C5000BDF8181000EB012000B2ADF82E00BDF871
:100C60001E00BDF81C1000EB012000B2ADF83000F2
:100C7000BDF92C0008F07FFF8146314608F02BFDBE
:100C80000646BDF92E0008F076FF8146394608F089
:100C900022FD0746BDF9300008F06DFF8146414650
:100CA00008F019FD80461F480088401C1D49088037
:100CB000681C85B2C82D96DB304608F088FF00B26C
:100CC0001849098890FBF1F000B2174908803846AE
:100CD00008F07DFF00B21349098890FBF1F000B2E3
:100CE00012490880404623E0FC040020C3F51CC1E3
:100CF000A470BD3E000080BE0AD7A33CCA61B336D3
:100D0000A0050020940500200000103F9999234081
:100D100000408F403333E33F66663040FB2109409B
:100D200000806640AA0000206C0000206E000020B9
:100D300008F04DFF00B2D049098890FBF1F000B2F5
:100D4000CE49088000200DB0BDE8F0832DE9F041C8
:100D50008AB0FFF79CFCD020FFF755FDFFF7DCFCC5
:100D60003B20FFF750FDFFF7D7FCFFF790FCD120A9
:100D7000FFF749FDFFF7D0FC00240EE00D2C05D154
:100D80000020FFF776FD2DF8140004E00120FFF7A6
:100D900070FD2DF81400601CC4B20E2CEEDBFFF7C2
:100DA00098FCFFF774FC1820FFF72DFDFFF7B4FC4B
:100DB0000320FFF728FDFFF7AFFCFFF768FC1920C1
:100DC000FFF721FDFFF7A8FC0E240EE0132C05D140
:100DD0000020FFF74EFD2DF8140004E00120FFF77E
:100DE00048FD2DF81400601CC4B2142CEEDBFFF794
:100DF00070FC11220A211820FFF786FEBDF80200C0
:100E0000BDF8001000EB012000B29D490880BDF83C
:100E10000600BDF8041000EB012000B2984948809C
:100E2000BDF80A00BDF8081000EB012000B294499B
:100E30008880BDF80E00BDF80C1000EB012000B258
:100E40008F49C880BDF81200BDF8101000EB0120DA
:100E500000B28B490881BDF81600BDF8141000EBF4
:100E6000012000B286494881BDF81A00BDF818106B
:100E700000EB012000B282498881BDF81C00BDF85A
:100E80001E1000EB012000B27D49C881BDF8200092
:100E9000BDF8221000EB012000B279490882BDF8AC
:100EA0002400BDF8261000EB012000B274494882EE
:100EB000B1F90810734AB2F90020881A08F069FEE7
:100EC00007460022704B08F075FD054608F0D8FE75
:100ED0006E4908606A49B1F90A106D4AB2F90020FA
:100EE000881A08F056FE07460022674B08F062FD9C
:100EF000054608F0C5FE674908606149B1F90C1064
:100F00005E4AB2F90020881A08F043FE0746002224
:100F10005D4B08F04FFD054608F0B2FE5E490860E3
:100F20005A48006808F099FE05464FF066325B4B60
:100F300008F0B2FD074608F0A3FE54490860554882
:100F4000006808F08AFE05464FF06632534B08F001
:100F5000A3FD074608F094FE4E4908604E4800681D
:100F600008F07BFE05464FF066324C4B08F094FDCE
:100F7000074608F085FE484908604149B1F900007C
:100F800008F0F9FD464908603D49B1F9020008F052
:100F9000F2FD444908603A49B1F9040008F0EBFD5C
:100FA000414908603E48006808F057FE05460022A7
:100FB0003E4B08F0FFFC074608F062FE3849086027
:100FC0003848006808F049FE05460022374B08F013
:100FD000F1FC074608F054FE3249086032480068C8
:100FE00008F03BFE05460022304B08F0E3FC0746C4
:100FF00008F046FE2C4908602149B1F90E0008F0BE
:10100000BAFD2B4908601E49B1F9100008F0B3FD84
:10101000284908601A49B1F9120008F0ACFD2649C8
:101020000860244800682549086021480068244970
:1010300008602148006880F0004022490860224989
:101040001E48006808F099FB1C4908601F491C48AD
:10105000006808F040FB1A4908601A4800681949FE
:1010600008600A2000F09FFE14220549492003F081
:10107000D5F90AB0BDE8F081AA0000207000002078
:10108000A80400206C0000200040AF3F800000203A
:101090006E000020840000208800002066A64C40DE
:1010A00074000020780000207C0000200000103F29
:1010B0008C00002090000020940000209800002068
:1010C0009C000020A0000020000022430000964267
:1010D00010B50121084601F0F3FB0121480701F09A
:1010E000FCFB0121042001F0F8FB0121102001F09C
:1010F000F4FB10BD08B54FF4A06001F057F81C20B8
:101100008DF8000001208DF8010002208DF802000A
:1011100001208DF80300684601F04DF81D208DF880
:10112000000001208DF8010002208DF8020001204E
:101130008DF80300684601F03EF832208DF800007B
:1011400001208DF8010002208DF8020001208DF8A9
:101150000300684601F02FF808BD10B588B00446BA
:101160000121082001F0B9FB0720ADF8000018208C
:101170008DF8030003208DF802006946FE4801F057
:10118000E3F8ADF818406320ADF814000020ADF886
:101190001A00ADF8160005A9F84802F071FA01210D
:1011A000F64803F08FF801221146F44802F0DFFD03
:1011B00001A802F09AFD6020ADF804004FF48760AA
:1011C000ADF80A000120ADF806000020ADF80C00D3
:1011D00001A9EA4802F091FA0821E84802F0DCFE91
:1011E0006020ADF804004FF48760ADF80A000120DC
:1011F000ADF806000020ADF80C0001A9DF4802F0B0
:10120000BEFA0821DD4802F0D0FE6020ADF80400EF
:101210004FF48760ADF80A000120ADF80600002009
:10122000ADF80C0001A9D54802F0F6FA0821D34820
:1012300002F0C8FE0121D14802F07EFE0121CF4814
:1012400002F07AFD0121CD4802F082FD002008B0B5
:1012500010BD10B588B004460121022001F03DFB0D
:101260000121C74801F041F94FF4E070ADF80000EA
:1012700018208DF8030003208DF802006946C1484C
:1012800001F062F80121022001F027FB4FF6FF7008
:10129000ADF818004FF4B470ADF814000020ADF8AC
:1012A0001A00ADF8160005A9B74802F0E9F90020C8
:1012B000ADF80A003020ADF804000120ADF80600BA
:1012C0000020ADF808000220ADF80C000020ADF8B9
:1012D0000E004FF48070ADF810000020ADF8120041
:1012E00001A9A94802F009FA0021A74802F054FE1A
:1012F0000020ADF80A003020ADF804000120ADF860
:1013000006000020ADF808000220ADF80C00002017
:10131000ADF80E004FF48070ADF810000020ADF86D
:10132000120001A9984802F02AFA0021964802F01A
:101330003CFE0020ADF80A003020ADF8040001208A
:10134000ADF806000020ADF808000220ADF80C0052
:101350000020ADF80E004FF48070ADF810000020B2
:10136000ADF8120001A9884802F056FA002186481B
:1013700002F028FE0121844802F0DEFD01218248AE
:1013800002F0DAFC012202217F4802F0F0FC012287
:1013900004217D4802F0EBFC012208217A4802F08A
:1013A000E6FC002008B010BD0EB50121084601F092
:1013B00094FA4FF0804002F08FF83220ADF804002C
:1013C00048F69F40ADF800000020ADF80600ADF8EB
:1013D000020069464FF0804002F052F9012188076F
:1013E00002F070FF01221146900702F0C0FC0121BB
:1013F000880702F0A1FC00200EBD10B5FFF7D4FF56
:101400006320FFF726FF4FF46150FFF7A6FE10BDE3
:1014100000B589B00121084601F052FA0121C80245
:1014200001F04EFA0121042001F04AFA4FF4106055
:10143000ADF8200003208DF8220018208DF823003D
:1014400008A94D4800F080FF504802F045F8002000
:10145000ADF81400ADF816004FF4FA70ADF81800AE
:101460000020ADF81A008DF81C0005A9474802F0CD
:1014700007F96020ADF804000120ADF806007F20D8
:10148000ADF80A000020ADF80C0001A93F4802F0B9
:1014900034F908213D4802F07FFD01A93B4802F0E4
:1014A00006FA0821394802F096FD0121374802F07A
:1014B00043FD7F203549343108803449403108806C
:1014C0000121324802F038FC0121304802F040FC92
:1014D00009B000BD00B589B00121042001F0FDF97B
:1014E0000121082001F0ECF908A800F0B8FFC020A5
:1014F000ADF8200048208DF8230003208DF822004D
:1015000008A9234800F020FF1E208DF804000120C8
:101510008DF805008DF806008DF8070001A800F091
:101520004AFE1C4801F0D8FF05A802F0D5FB40F6A2
:101530005F10ADF818000020ADF81400ADF81A00E7
:10154000ADF8160005A9134802F09AF800231A46D0
:101550000321104802F0A3FC02A802F0D0FB0620F1
:10156000ADF8100002A90B4802F01DFB012109484B
:1015700002F0A8FE01220FE000080140000C00402C
:10158000000C1A000010014000040040002C014033
:10159000000C0140000800401146184802F0E7FB2B
:1015A0000121164802F0C8FB002009B000BD0EB5AD
:1015B0000121102001F091F9114801F08DFF4FF445
:1015C0007A60ADF804000820ADF800000020ADF806
:1015D0000600ADF802006946094802F051F8012101
:1015E000074802F06FFE01221146054802F0BFFBDA
:1015F0000121034802F0A0FB00200EBD00080040BE
:101600000010004070B5FE48007888BBFD48028895
:10161000FD4803880020FB4E3080FB48008804B260
:10162000F9482438008800F0100010280ED1F7483F
:101630000068181AC2EB021606EB8606C0EB4611CC
:101640004FF0FF30F24E306049420BE0EF48006847
:10165000181AC2EB021606EB860600EB46110120B3
:10166000EB4E306011B90020E94E30600D4609E0C4
:10167000FFE70020E24E30700025E24E3080E24865
:10168000008804B2E148046028B270BD70B5E1483A
:10169000007888BBE0480288E04804880020DE4EDD
:1016A0003080DE48008803B2DC482438008800F02F
:1016B000100010280CD1DA480068201AC2EB02167C
:1016C00006EB8606C0EB46110120D64E30600DE0D9
:1016D000D3480068201AC2EB021606EB860600EB20
:1016E00046114FF0FF30CF4E3060494211B9002013
:1016F000CC4E30600D4609E0FFE70020C54E30704B
:101700000025C54E3080C548008803B2C448036038
:1017100028B270BD002007E00021C34A42F8201023
:10172000C24A42F82010401C0328F5D30121B44AD4
:101730001170B84A117070472DE9F05F00210C4616
:101740000D460E460F468A460DE0B74850F82A006F
:10175000861947EBE077B54850F82A100C1945EB8D
:10176000E1750AF1010ABAF1030FEED30322002357
:101770002046294607F057FF04460D460322002362
:101780003046394607F04FFF06460F46C8224FF055
:10179000000C2346A3FB023B05FB02B104FB0C102B
:1017A0003C220021A3FB028B00FB02B003FB0109DA
:1017B0004FF416620B464046494607F034FF044694
:1017C000C82300213046A0FB03CB07FB03B206FB76
:1017D00001203C22ACFB028B00FB02B00CFB010998
:1017E0004FF416620B464046494607F01CFF06467A
:1017F00030B28F49086020B28E4908608C4800687A
:101800008D4908608B4800688C490860BDE8F09FEE
:1018100070B58A48006888490968401A8849086094
:101820008348006808F0B0F905462946854803F06A
:101830007BFF044684480168204607F04CFF82493C
:10184000086082498048006808F040FA02D27F4868
:101850007D49086000217C48006808F02DFA02D21A
:10186000002079490860784800687949086008468E
:10187000006808F0C5F94FF08041888770BD70B5E9
:101880006D4800686D490968401A6D4908606948EB
:10189000006808F079F9054629466E4803F044FFD0
:1018A00004466D480168204607F015FF6A49086044
:1018B00066496948006808F009FA02D26348664937
:1018C000086000216448006808F0F6F902D20020A0
:1018D000614908606048006808F092F94FF0804163
:1018E000088770BD10B501214748243802F0EAFC92
:1018F000444800884FF6FF71884204D04148008870
:10190000401C4049088010BD38B5022143482438A6
:1019100002F0DBFC002871D002214048243802F09C
:10192000E5FC4E4800680028F5D04D48008800EBE3
:1019300040004C490988084484B24B4800888442DE
:101940001CDA4A48006845490968B0EB510F15D2C6
:101950003248243802F09AFC45490880454890FBFB
:10196000F4F00988084485B229462C48243802F04E
:101970007BFC3E4800883A49088037E037480068D9
:1019800037490988401A3949096888421DD82348CF
:10199000243802F07BFC3649088030480068304922
:1019A0000988401A31490968081A00EB4000201ADA
:1019B0003049B1FBF0F02E490988084485B2294628
:1019C0001648243802F050FC10E01448243802F085
:1019D0005DFC27490880274890FBF4F009880844FB
:1019E00085B229460D48243802F03EFC1F480068A5
:1019F0001A490968884252D900203DE055E00000AC
:101A0000CC000020C200002024080040200100205B
:101A100018010020CD000020C00000202404004058
:101A2000240100201C010020B0050020BC0500207E
:101A3000B0000020B4000020B8000020BC0000204E
:101A4000C8000020F40000203001002000006145A3
:101A5000C4000020D000002034010020D00100206C
:101A60002A010020EE010020E8010020D40100201E
:101A700028010020A0860100974908609749086066
:101A8000974908800121292003F072F992480068E3
:101A9000072394A229210090752002F04FFD8F4862
:101AA0000068401C8D49086000BF04218F4802F087
:101AB0000CFC00287ED004218C4802F017FC8C48D6
:101AC000006800287CD08B48008800EB80008A49A1
:101AD0000988084484B28948008884421ADA884810
:101AE000006883490968B0EB510F13D27F4802F0B8
:101AF000D0FB84490880844890FBF4F009880844AE
:101B000085B22946794802F0B1FB7D4800887949C1
:101B1000088033E07648006876490988401A784999
:101B2000096888421BD8714802F0B3FB75490880E8
:101B30006F4800686F490988401A71490968081A96
:101B400000EB8000201A7049B1FBF0F06D49098864
:101B5000084485B22946654802F088FB0EE06348D8
:101B600002F097FB67490880674890FBF4F009880A
:101B7000084485B229465D4802F078FB6048006859
:101B80005B490968884213D90020594908605C49BB
:101B900008605849088001212A2003F0E9F85448D8
:101BA0000068072359A22A210090752002F0C6FC84
:101BB000534800E004E00068401C5149086000BF41
:101BC00008214A4802F081FB00287DD008214748BF
:101BD00002F08CFB4F48006800287CD04E480088FB
:101BE00000EB800044490988084484B24B480088CF
:101BF00084421ADA4A48006846490968B0EB510F36
:101C000013D23A4802F048FB3E4908803E4890FB18
:101C1000F4F00988084485B22946344802F028FBCC
:101C20003F4800883C49088033E03A4800683A4918
:101C30000988401A3A49096888421BD82B4802F0A3
:101C40002BFB304908803348006833490988401A23
:101C500033490968081A00EB8000201A2A49B1FBB1
:101C6000F0F028490988084485B229461F4802F047
:101C7000FFFA0EE01D4802F00FFB224908802248BF
:101C800090FBF4F00988084485B22946174802F011
:101C9000EFFA234800681F490968884213D90020D9
:101CA0001C4908601E4908601B49088001212B203F
:101CB00003F05EF81748006807231AA22B21009052
:101CC000752002F03BFC00E005E015480068401C70
:101CD0001349086000BF38BDD0010020D4010020A6
:101CE0002A0100204D41524D2041000000040040D7
:101CF000D80100202C010020EE010020EA01002084
:101D0000DC01002028010020A08601004D41524D39
:101D100020420000E00100202E010020EC01002004
:101D2000E40100204D41524D2043000010B56FF0FA
:101D3000040000F08AFA2E4800682E49B0FBF1F04A
:101D40002D4908700846007800EB4001C1EBC01037
:101D50004FF6FF7101EAC0002849088010BD014616
:101D6000254A12784A434FF0E0235A6100229A61D3
:101D70001A46126942F001021A6100BF4FF0E022D8
:101D8000106900F001021AB100F48032002AF5D087
:101D90004FF0E022126922F001024FF0E0231A61B5
:101DA00000229A6170470146144A12884A434FF054
:101DB000E0235A6100229A611A46126942F0010238
:101DC0001A6100BF4FF0E022106900F001021AB161
:101DD00000F48032002AF5D04FF0E022126922F0A0
:101DE00001024FF0E0231A6100229A61704700005F
:101DF0005400002000127A00380100203A0100202F
:101E000000BF704700BFD74A128802F04002002A84
:101E1000F9D0C2B2D34B1B1D1A80704710B586B0E3
:101E20000446012144F2040000F04AFD4FF4007022
:101E3000ADF8140003208DF8160018208DF8170057
:101E400005A9C94800F080FA4FF48060ADF814008D
:101E500004208DF8170005A9C34800F075FA252065
:101E60008DF8000003208DF801008DF8020001209C
:101E70008DF80300684600F09EF901940020ADF84B
:101E80000800ADF80A00ADF80C00ADF810000C2009
:101E9000ADF80E0001A9B34800F0B9FD012240F2EF
:101EA0002551B04800F04BFE0121AE4800F03BFE4A
:101EB00006B010BD10B586B004460121112000F017
:101EC000FFFC0121880400F008FD0121A74800F073
:101ED0000CFB4FF48060ADF8140003208DF8160061
:101EE00018208DF8170005A9A14800F02DFA4FF42D
:101EF0000060ADF8140004208DF8170005A99C4877
:101F000000F022FA27208DF8000002208DF8010051
:101F100003208DF8020001208DF80300684600F0D0
:101F20004AF901940020ADF80800ADF80A00ADF8B8
:101F30000C00ADF810000C20ADF80E0001A98D4882
:101F400000F065FD012240F225518A4800F0F7FDBE
:101F50000121884800F0E7FD06B010BD10B586B03D
:101F600004460121302000F0ABFC0121080500F0FF
:101F7000B4FC4FF48050ADF8140003208DF8160027
:101F800018208DF8170005A9794800F0DDF9042024
:101F9000ADF814008DF8170005A9774800F0D4F9C2
:101FA00035208DF8000003208DF801008DF8020027
:101FB00001208DF80300684600F0FDF80194002030
:101FC000ADF80800ADF80A00ADF80C00ADF810004F
:101FD0000C20ADF80E0001A9684800F018FD0122A0
:101FE00040F22551654800F0AAFD0121634800F048
:101FF0009AFD06B010BD10B540F22551594800F0C9
:1020000083FE10B3574800F0FFFDC4B25C4800885F
:1020100000F40040C8B95A48008800F4804060B11C
:102020000A2C03D000205649088020E0544800883C
:1020300040F400405249088019E00D2C06D1504868
:10204000008840F480404E49088010E04C480088E9
:10205000C0F30D004B490C5449480088401C4849C6
:10206000088008460088C72801DD0020088010BDD0
:1020700010B501213F4800F031FE30B13D4800F07D
:10208000C3FD01213B4800F036FE0821394800F02D
:1020900025FE30B1374800F0B7FD0821354800F083
:1020A0002AFE0221334800F019FE30B1314800F019
:1020B000ABFD02212F4800F01EFE40F225512D48B5
:1020C00000F022FE80B120212A4800F014FE40F2E8
:1020D0002551284800F042FE264800F095FDC4B284
:1020E0000321204603F041FD10BD10B50121234816
:1020F00000F0F4FD30B1214800F086FD01211F48B9
:1021000000F0F9FD08211D4800F0E8FD30B11B4842
:1021100000F07AFD0821194800F0EDFD0221174872
:1021200000F0DCFD30B1154800F06EFD02211348CF
:1021300000F0E1FD40F22551104800F0E5FD80B1CE
:1021400020210E4800F0D7FD40F225510B4800F049
:1021500005FE0A4800F058FDC4B20521204603F0F0
:1021600004FD10BD003801400008014010001400BB
:1021700000100140004800400014014000500040A1
:1021800040010020C8050020064880470648004757
:10219000FEE7FEE7FEE7FEE7FEE7FEE7FEE7FEE717
:1021A000FEE7FEE7FF020008310100083149014364
:1021B000314A1160704770B5002100230F22C478A6
:1021C00004B32D4C246804F4E064C4F5E064210AEF
:1021D000C1F10403CA40447804FA03F1847814403E
:1021E00021430901254C0678A155047804F01F0508
:1021F0000124AC4005786D11AD0005F1E025C5F86E
:10220000004109E0047804F01F050124AC401C4D96
:102210000678761145F8264070BD1A4A0A400243F6
:10222000154B1B1F1A60704739B1134A121D1268F3
:102230000243114B1B1D1A6006E00F4A121D126863
:1022400082430D4B1B1D1A607047042808D14FF0C4
:10225000E021096941F004014FF0E022116107E03B
:102260004FF0E021096921F004014FF0E0221161F3
:10227000704700000000FA050CED00E000E400E00B
:1022800080E100E080FFFF1F10B50446CC48844287
:1022900008D10121042000F02DFB0021042000F0D2
:1022A00029FB46E0C748844208D10121082000F0FC
:1022B00021FB0021082000F01DFB3AE0C2488442C7
:1022C00008D10121102000F015FB0021102000F0A2
:1022D00011FB2EE0BD48844208D10121202000F0EE
:1022E00009FB0021202000F005FB22E0B8488442D1
:1022F00008D10121402000F0FDFA0021402000F02B
:10230000F9FA16E0B348844208D10121802000F098
:10231000F1FA0021802000F0EDFA0AE0AE48844294
:1023200007D10121801500F0E5FA0021A01500F089
:10233000E1FA10BD10B50121084600F0DBFA0021DA
:10234000012000F0D7FA10BD2DE9F041024600252A
:102350000026002000230024002791F803C00CF081
:102360000F0591F803C00CF0100CBCF1000F03D066
:1023700091F802C04CEA050591F800C0BCF1000FCD
:1023800031D0146800202BE04FF0010C0CFA00F360
:10239000B1F800C00CEA03069E4220D183004FF042
:1023A0000F0C0CFA03F7BC4305FA03FC4CEA0404D7
:1023B00091F803C0BCF1280F06D14FF0010C0CFAC4
:1023C00000FCC2F814C00AE091F803C0BCF1480F49
:1023D00005D14FF0010C0CFA00FCC2F810C0401CF3
:1023E0000828D1D31460B1F800C0BCF1FF0F34DD70
:1023F000546800202EE000F1080C4FF0010808FAA4
:102400000CF3B1F800C00CEA03069E4221D1830010
:102410004FF00F0C0CFA03F7BC4305FA03FC4CEA2F
:10242000040491F803C0BCF1280F05D100F1080C99
:1024300008FA0CF8C2F8148091F803C0BCF1480FF8
:1024400007D100F1080C4FF0010808FA0CF8C2F8A7
:102450001080401C0828CED35460BDE8F0814FF6B0
:10246000FF710180022181700421C1707047024612
:10247000002093680B400BB1012000E00020704762
:102480000146886880B2704702460020D3680B403E
:102490000BB1012000E0002070470146C86880B2FF
:1024A000704701617047416170470AB1016100E006
:1024B00041617047C16070474FF480320A438261C6
:1024C0008161826182698269704702460020434BC4
:1024D00018684FF68073184040EA021008433F4BDB
:1024E000186070473E49C8617047F0B50A4600233E
:1024F00000240021002500F00046B6F1004F02D173
:10250000364EF16901E0354E7168C0F3034583B280
:1025100000F44016B6F5401F08D121F070612F4E2F
:10252000766826F070662D4F7E6012E000F480160B
:10253000B6F5801F06D1032606FA05F4A14341F043
:10254000706106E0460D360103FA06F6B14341F02C
:10255000706122B1460D360103FA06F6314300F0F0
:102560000046B6F1004F02D11C4EF16101E01B4E56
:102570007160F0BD30B500228B071C0F0F2303FAEA
:1025800004F2164B08338C1053F824309343134C49
:1025900008348D1044F8253023468C1053F824302D
:1025A0008C07240F00FA04F423430C4C08348D10DC
:1025B00044F8253030BD0A49DC310860704700001E
:1025C00000080140000C01400010014000140140CF
:1025D00000180140001C01400020014000000140A3
:1025E00000002042DF48006840F00100DD4908603B
:1025F00008464068DC490840DA49486008460068F7
:10260000DA490840D74908600846006820F480206D
:1026100008600846406820F4FE0048604FF41F0040
:1026200088607047CF49096821F48031CD4A116034
:102630001146096821F480211160B0F5803F03D074
:10264000B0F5802F0ED106E0C649096841F480310B
:10265000C44A116007E0C349096841F4A021C14A96
:10266000116000E000BF00BF704710B501460022B6
:10267000002300204A11012A02D1BA4C236806E047
:10268000022A02D1B74C236A01E0B64C636A01F01A
:102690001F02012494401C400CB1012000E00020E6
:1026A00010BD38B5002000900024002500BF312067
:1026B000FFF7DBFF05460098401C00900098B0F53E
:1026C000A06F01D0002DF2D03120FFF7CEFF08B16E
:1026D000012400E00024204638BD01460020A14A24
:1026E000106820F0F80040EAC10010607047A0496F
:1026F00008607047024600209A4B586820F47C100E
:1027000042EA01031843974B58607047984908669E
:10271000704701460020934A506820F003000843A8
:10272000506070478F48406800F00C0070470146C9
:1027300000208C4A506820F0F00008435060704739
:1027400001460020874A506820F4E060084350604A
:10275000704701460020834A506820F4605040EAE8
:10276000C1005060704729B17E4A527A02437D4BC6
:102770005A7204E07B4A527A82437A4B5A7270470B
:102780007B49D8310860704701460020754A50687F
:1027900020F440400843506070470021714A2032C5
:1027A0001170704A82F82010012802D004280AD142
:1027B00004E001216B4A2032117005E00521694ACD
:1027C0002032117000E000BF00BF70476949086007
:1027D00070476449096A0143624A1162704765495A
:1027E00044390860704730B50021002200240023DE
:1027F0005C4D6D6805F00C0121B1042905D0082954
:1028000023D105E05C4D056022E05B4D05601FE0D3
:10281000544D6D6805F47012524D6D6805F48034A6
:10282000022505EB92421CB9544D554305600BE05F
:102830004C4D6D6805F400351DB1504D5543056094
:1028400002E04D4D5543056002E04B4D056000BF71
:1028500000BF444D6D6805F0F0010909484D6B5CFF
:102860000568DD4045603F4D6D6805F4E061090A8B
:10287000434D6B5C4568DD4085603A4D6D6805F4FD
:102880006051C90A3E4D6B5C4568DD40C560354D01
:102890006D6805F44041890B3A4D6B5CC568B5FB2A
:1028A000F3F5056130BD29B12E4A526902432D4B23
:1028B0005A6104E02B4A526982432A4B5A6170479D
:1028C00029B1284A92690243264B9A6104E0254ABD
:1028D00092698243234B9A61704729B1214AD26998
:1028E0000243204BDA6104E01E4AD26982431D4B49
:1028F000DA61704729B11B4AD2680243194BDA608A
:1029000004E0184AD2688243164BDA60704729B156
:10291000144A12690243134B1A6104E0114A126906
:102920008243104B1A617047124940390860704762
:102930000F49C86470470B49C87170470948406A1D
:1029400040F0807007494862704701460020054A00
:1029500092680A400AB1012000E000207047014956
:1029600088727047001002400000FFF8FFFFF6FE7B
:10297000000042428004424200127A0000093D00F9
:10298000420100205201002010B50446FB48844259
:1029900009D101218803FFF7ADFF00214FF48040EA
:1029A000FFF7A8FF32E0F648844209D1012148042C
:1029B000FFF7ADFF00214FF40030FFF7A8FF25E03F
:1029C000F048844209D101218804FFF7A0FF0021CB
:1029D0004FF48020FFF79BFF18E0EB48844209D1B9
:1029E0000121C804FFF793FF00214FF40020FFF7F7
:1029F0008EFF0BE0E548844208D101210805FFF76E
:102A000086FF00214FF48010FFF781FF10BD2DE9F4
:102A1000F04786B005460E460024A24600BFA146F8
:102A20000027B08900B100BF2F462C8A4CF6FF70FA
:102A30000440F08804432C82AC894EF6F310044025
:102A4000B08831890843718908430443AC81AC8A5A
:102A50004FF6FF400440B0890443AC8201A8FFF761
:102A6000C2FEC648874202D1DDF810A001E0DDF8C1
:102A70000CA0A88900F4004040B10AEBCA0000EBAA
:102A80000A1031684900B0FBF1F807E00AEBCA0010
:102A900000EB0A1031688900B0FBF1F86420B8FB44
:102AA000F0F004012009642101FB1089A88900F4D9
:102AB000004040B1322000EBC900B0FBF1F000F063
:102AC0000700044308E0322000EB09106421B0FB4A
:102AD000F1F000F00F0004432C8106B0BDE8F08750
:102AE0004FF41651016000218180C18001810C21C9
:102AF000418100218181704710B502460020108A73
:102B00004FF2FF0318400B884C8823438C882343E3
:102B1000CC8823431843108210BD002101804180DE
:102B20008180C180704721B1828942F40052828144
:102B300004E082894DF6FF731A4082817047F0B538
:102B40000346002400260025002040F66A17B942FB
:102B500000D100BF1846C1F3421401F01F0601273F
:102B600007FA06F5012C01D10C3004E0022C01D14A
:102B7000103000E014301AB107682F43076002E0FC
:102B80000768AF430760F0BD1AB1838A0B438382A5
:102B900002E0838A8B4383827047028A4FF6F07388
:102BA0001A400282028A0A430282704782894FF2E7
:102BB000FF731A40828182890A438281704721B162
:102BC000828942F00202828104E082894FF6FD731D
:102BD0001A4082817047028A4FF6DF731A400282E0
:102BE000028A0A430282704721B1028A42F480427B
:102BF000028204E0028A4BF6FF731A400282704799
:102C0000C1F308028280704701468888C0F308003B
:102C10007047818941F0010181817047028BD2B2F6
:102C20000283028B42EA012202837047028B02F484
:102C30007F420283028B0A430283704721B1828A5A
:102C400042F02002828204E0828A4FF6DF731A404B
:102C50008282704721B1828A42F01002828204E0AF
:102C6000828A4FF6EF731A408282704721B1828ABE
:102C700042F00802828204E0828A4FF6F7731A401B
:102C80008282704721B1828942F40042828103E04E
:102C90008289C2F30E028281704721B1828A42F496
:102CA0000062828204E0828A4FF2FF731A408282BD
:102CB0007047828A4FF6FB731A408282828A0A43E7
:102CC0008282704721B1828A42F00202828204E04D
:102CD000828A4FF6FD731A408282704702460020B6
:102CE000B1F5007F00D100BF13880B400BB101206C
:102CF00000E00020704701F40072B2F5007F00D1BF
:102D000000BFCA430280704770B50246002400230A
:102D10000025002040F66A16B14200D100BFC1F381
:102D2000421501F01F03012606FA03F3012D02D11B
:102D30009689334006E0022D02D1168A334001E025
:102D4000968A33400C12012606FA04F416883440A1
:102D500013B10CB1012000E0002070BD10B50022BD
:102D6000002340F66A14A14200D100BF0A120124D8
:102D70009440A3B2DC43048010BD00000038014041
:102D80000044004000480040004C0040005000401B
:102D900010B501214807FFF7BAFD00214FF00050A0
:102DA000FFF7B5FD10BD30B5002200235A4C226854
:102DB00040F6FE748440A243D1E900452C438D685F
:102DC0002C43CD6844EA050303FA00F42243524C35
:102DD000226030BD0021016041608160C1607047A8
:102DE00039B14D4A1268012383401A434A4B1A6095
:102DF00006E0494A1268012383409A43464B1A6011
:102E0000704741B1444A12684FF4805383401A43DB
:102E1000414B1A6007E0404A12684FF480538340E8
:102E20009A433D4B1A60704710B551B13A4A121D92
:102E3000126804090123A3401A43374B1B1D1A6073
:102E400009E0354A121D126804090123A3409A4380
:102E5000314B1B1D1A6010BD40B12F49091D096877
:102E600041F003012C4A121D116007E02A49091D97
:102E7000096821F00301284A121D1160704710B53E
:102E80003AB1254B1B6801FA00F42343224C23601E
:102E900006E0214B1B6801FA00F4A3431E4C23609B
:102EA00010BD08B5002200921B4A009200F10802F2
:102EB000009B1A440092009A116008BD08B50022D8
:102EC0000092154A009200F11402009B1A440092ED
:102ED000009A116008BD30B500240023082802D1F3
:102EE00042EA012401E042EA01440B4B00F12005D3
:102EF0002B441C6030BD08B50146002000900648F8
:102F000000902C2000EB9100009A10440090009853
:102F1000006880B208BD0000007400400146002037
:102F2000FE4A106800F03800084310607047FB4903
:102F3000096821F00801F94A116011460968014346
:102F400011607047F549096821F01001F34A1160DA
:102F500011460968014311607047F148EF49486024
:102F6000F04848607047EE48EC494860ED484860DA
:102F70007047EA48006940F08000E84908617047FE
:102F8000E648006940F08000E44908617047042089
:102F9000E249C96801F0010109B101200EE0DF49F1
:102FA000C96801F0040109B1022007E0DB49C968E2
:102FB00001F0100109B1032000E00420704700B5C2
:102FC00002460423FFF7E3FF034603E0FFF7DFFFBA
:102FD0000346521E012B01D1002AF7D102B9052365
:102FE000184600BD30B5044604254FF43020FFF7E5
:102FF000E6FF0546042D17D1C848006940F00200DD
:10300000C649086108464461006940F04000086113
:103010004FF43020FFF7D3FF0546C048006941F662
:10302000FD710840BD490861284630BD10B5042433
:103030004FF43020FFF7C3FF0446042C16D1B748E5
:10304000006940F00400B54908610846006940F095
:10305000400008614FF43020FFF7B1FF0446AF484D
:10306000006941F6FB710840AC490861204610BD7B
:1030700000B502460423FFF78AFF034603E0FFF78B
:1030800086FF0346521E012B01D1002AF7D102B957
:103090000523184600BD10B504244FF43020FFF777
:1030A000E7FF0446042C16D19C48006940F0040058
:1030B0009A4908610846006940F0400008614FF4F1
:1030C0003020FFF7D5FF04469448006941F6FB71B4
:1030D000084092490861204610BD00208F49C96907
:1030E00001F0020109B1012000E00020704730B575
:1030F000A5250424FFF7F1FF00B100254FF430208F
:10310000FFF75DFF0446042C3AD185488349886067
:10311000844888600846006940F02000086108463D
:10312000006940F0400008614FF43020FFF747FF8E
:103130000446042C1BD17948006941F6DF71084030
:10314000764908610846006940F010000861764839
:103150000580E002FFF733FF0446052C10D06F48CE
:10316000006941F6EF7108406C49086108E0052CE0
:1031700006D06A48006941F6EF7108406749086166
:10318000204630BD78B506460C4604250020009048
:10319000E802FFF714FF0546042D24D15F480069BB
:1031A00040F001005D4908613480E802FFF707FF45
:1031B0000546042D10D1B01C0090200C0099088009
:1031C000E802FFF7FCFE05465448006941F6FE712F
:1031D00008405249086106E05048006941F6FE7116
:1031E00008404E490861284678BD70B504460D4632
:1031F0000426F002FFF7E3FE0646042E11D14748ED
:10320000006940F00100454908612580F002FFF7A0
:10321000D6FE06464148006941F6FE7108403F4926
:103220000861304670BD70B505460E460424E002C4
:10323000FFF7C5FE0446042C17D13948374988608A
:10324000384888600846006940F0100008612E8008
:10325000E002FFF7B4FE0446052C06D02F480069B3
:1032600041F6EF7108402D490861204670BD2DE9F7
:10327000F04304464FF6FF763746B046B146042584
:10328000E443E6B2C4F30727C4F307484FEA1469DE
:10329000E802FFF794FE0546042D49D120481F4956
:1032A0008860204888600846006940F01000086186
:1032B000FF2E06D01C4808300680E802FFF77FFE8C
:1032C0000546042D08D1FF2F06D017480A30078085
:1032D000E802FFF774FE0546042D0AD1B8F1FF0F8E
:1032E00007D011480C30A0F80080E802FFF767FE15
:1032F0000546042D0AD1B9F1FF0F07D00A480E3058
:10330000A0F80090E802FFF75AFE0546052D0FD001
:103310000248006941F6EF71084007E000200240D2
:1033200023016745AB89EFCD00F8FF1F66490861AF
:103330002846BDE8F08330B5054604244FF430201C
:10334000FFF73DFE0446042C41D160485E49886089
:103350005F4888600846006940F020000861084620
:10336000006940F0400008614FF43020FFF727FE6D
:103370000446042C22D15448006941F6DF7108400C
:10338000514908610846006940F0100008611DB10C
:1033900000205049088002E0A5204E4908804FF4E3
:1033A0003020FFF70CFE0446052C10D0464800697B
:1033B00041F6EF7108404449086108E0052C06D049
:1033C0004148006941F6DF7108403F4908612046E5
:1033D00030BDF0B505460E46174604243B483A4931
:1033E00088603B488860E002FFF7E9FD0446042C52
:1033F00019D13548006940F010003349086147F0A1
:10340000F800304328433349891C0880E002FFF765
:10341000D6FD0446052C06D02B48006941F6EF7115
:103420000840294908612046F0BD2748C069800846
:1034300070472548006A704700202349096801F059
:10344000200109B1012000E00020704729B11E4A87
:10345000126902431C4B1A6104E01B4A1269824341
:10346000194B1A61704701460020012908D1164AFC
:10347000D26902F001020AB1012008E0002006E052
:10348000114AD2680A400AB1012000E000207047CA
:103490000D49C860704704200B49C96801F001015B
:1034A00009B101200EE00849C96801F0040109B121
:1034B000022007E00449C96801F0100109B10320A6
:1034C00000E004207047000000200240230167450F
:1034D000AB89EFCD00F8FF1F10B50446FE488442CB
:1034E00008D10121C014FFF705FA0021E014FFF70D
:1034F00001FAC4E0B4F1804F08D101210846FFF77A
:1035000006FA00210120FFF702FAB8E0F3488442EE
:1035100008D101210220FFF7FAF900210220FFF76C
:10352000F6F9ACE0EE48844208D101210420FFF70F
:10353000EEF900210420FFF7EAF9A0E0E94884420F
:1035400008D101210820FFF7E2F900210820FFF748
:10355000DEF994E0E448844208D101211020FFF70D
:10356000D6F900211020FFF7D2F988E0DF48844225
:1035700008D101212020FFF7CAF900212020FFF700
:10358000C6F97CE0DA48844208D101214014FFF7F3
:10359000B1F900216014FFF7ADF970E0D54884421D
:1035A00009D10121C804FFF7A5F900214FF400203B
:1035B000FFF7A0F963E0D048844209D10121080552
:1035C000FFF798F900214FF48010FFF793F956E0C8
:1035D000CA48844209D101214805FFF78BF900212F
:1035E0004FF40010FFF786F949E0C548844208D13E
:1035F00001214020FFF78BF900214020FFF787F9D8
:103600003DE0C048844208D101218020FFF77FF9C6
:1036100000218020FFF77BF931E0BB48844208D1CC
:1036200001218015FFF773F90021A015FFF76FF94D
:1036300025E0B648844209D101210804FFF75AF970
:1036400000214FF48030FFF755F918E0B04884426C
:1036500009D101214804FFF74DF900214FF4003052
:10366000FFF748F90BE0AB48844208D101218804F8
:10367000FFF740F900214FF48020FFF73BF910BD20
:1036800000220288944B98420ED0994B98420BD05E
:10369000B0F1804F08D0914B984205D0904B9842A2
:1036A00002D0904B984204D14FF68F731A404B884A
:1036B0001A438D4B984207D08C4B984204D04FF65A
:1036C000FF431A40CB881A4302808B8883850B887E
:1036D0000385814B98420BD0854B984208D08B4B89
:1036E000984205D08A4B984202D08A4B984201D129
:1036F0000B7A038601238382704770B50024002271
:103700000023058C4FF6FE7635400584028C8388B5
:10371000048B4FF68F752C40B51E2C400D882C4322
:10372000751E2A400D892A434D882A436A4DA842B6
:103730000BD06F4DA84208D0744DA84205D0744DEF
:10374000A84202D0734DA84213D14FF6F7752A4014
:103750004D892A434FF6FB752A408D882A434FF640
:10376000FF652B404FF6FF552B408D892B43CD89AC
:103770002B4383800483CD888586028470BD70B519
:10378000002400220023058C4FF6EF763540058497
:10379000028C8388048B48F6FF752C404FF6FF455A
:1037A0002C400D884FF6FF7606EA05252C434FF690
:1037B000DF752A400D8906EA05152A434D8806EA79
:1037C00005152A43444DA84202D0494DA8421DD1B7
:1037D0004FF67F752A404D894FF6FF7606EA0515AC
:1037E0002A434FF6BF752A408D8806EA05152A43FD
:1037F0004FF6FF352B404FF2FF752B408D8906EABF
:1038000085052B43CD8906EA85052B4383800483F8
:10381000CD880587028470BD70B500240022002386
:10382000058C4FF6FF6635400584028C8388848BB7
:103830004FF68F752C404FF6FC752C400D882C43AD
:103840004FF6FF552A400D894FF6FF7606EA05250B
:103850002A434D8806EA05252A431F4DA84202D077
:10386000234DA8421DD14FF2FF752A404D894FF6D6
:10387000FF7606EA05252A434FF6FF352A408D8854
:1038800006EA05252A434EF6FF752B404DF6FF75D7
:103890002B408D8906EA05152B43CD8906EA0515CF
:1038A0002B4383808483CD888587028470BD70B567
:1038B000002200230024058C4EF6FF763540058457
:1038C000038C8488828B48F6FF752A404FF6FF45AB
:1038D0002A400D8820E00000002C01400004004038
:1038E00000080040000C00400010004000140040A0
:1038F00000340140004C01400050014000540140A0
:1039000000180040001C0040002000400040014022
:1039100000440140004801404FF6FF7606EA0525C5
:103920002A434DF6FF752B400D8906EA05352B43DA
:103930004D8806EA05352B43FA4DA84202D0FA4DD0
:10394000A84208D14BF6FF752C408D894FF6FF76C3
:1039500006EA85152C4384808283CD88A0F84050E8
:10396000038470BD828B4FF2FF331A408283828BB7
:103970004FF6FF7303EA01231A4382837047F0B5C1
:103980000C461546002200210026078C4EF6FF7CCF
:1039900007EA0C070784828B018C4FF6FF7707EA52
:1039A000043640F6FF473A404FF6FF7707EA05270F
:1039B0003A434FF6FF7707EA03373A43D94FB84205
:1039C0000ED0D94FB8420BD0B0F1804F08D0D74FAE
:1039D000B84205D0D64FB84202D0D64FB84206D131
:1039E0004DF6FF77394046F48057394305E047F6F6
:1039F000FF57394044F48057394382830184F0BD36
:103A0000828B4FF6F3731A408283828B0A43828340
:103A10007047F0B50C461546002200210026078CA1
:103A20004FF6FF6C07EA0C070784828B018C4FF678
:103A3000FF7707EA04264FF60C773A404FF6FF77F8
:103A400007EA03172F433A43B64FB8420ED0B64F9A
:103A5000B8420BD0B0F1804F08D0B44FB84205D077
:103A6000B34FB84202D0B34FB84206D14FF6FF571A
:103A7000394046F48077394305E04FF2FF5739402B
:103A800044F48077394382830184F0BD028B4FF286
:103A9000FF331A400283028B4FF6FF7303EA0123C0
:103AA0001A4302837047F0B50C46154600220021E8
:103AB0000026078C4FF6EF7C07EA0C070784028B81
:103AC000018C4FF6FF7707EA041640F6FF473A40AD
:103AD0004FF6FF7707EA03373A434FF6FF7707EAD7
:103AE00005273A438F4FB8420ED08F4FB8420BD0C4
:103AF000B0F1804F08D08D4FB84205D08C4FB842FE
:103B000002D08C4FB84206D14FF6DF77394046F0ED
:103B10001007394305E04FF65F77394044F010074E
:103B2000394302830184F0BD028B4FF6F3731A40D0
:103B30000283028B0A4302837047F0B50C46154698
:103B400000220021068C4FF6FE773E400684028B51
:103B5000018C4FF60C7632407E1C06EA03162E438B
:103B60003243704EB0420ED06F4EB0420BD0B0F127
:103B7000804F08D06D4EB04205D06D4EB04202D09D
:103B80006C4EB04206D14FF6FD76314044F001064E
:103B9000314305E04FF6F576314044F001063143FC
:103BA00002830184F0BD70B505460C465D48854230
:103BB0000ED05D4885420BD0B5F1804F08D05B48F0
:103BC000854205D05A48854202D05A48854200D1E4
:103BD00000E000BF208850B92389A2886188284668
:103BE000FFF7ABFFE1882846FFF79EFF25E020881E
:103BF00004280AD12389A28861882846FFF753FF49
:103C0000E1882846FFF742FF17E0208808280AD1FC
:103C10002389A28861882846FFF7FBFEE1882846B1
:103C2000FFF7EEFE09E02389A28861882846FFF7A6
:103C3000A6FEE1882846FFF795FE70BD2DE9F0410C
:103C400005460C4600260127608808B9022600E0D8
:103C50000026A088012801D1022700E00127208842
:103C6000A0B92389A28861882846FFF766FFE1880A
:103C70002846FFF759FF23893A4631462846FFF781
:103C800012FFE1882846FFF701FF13E02389A2888D
:103C900061882846FFF707FFE1882846FFF7F6FE10
:103CA00023893A4631462846FFF747FFE1882846F0
:103CB000FFF73AFFBDE8F0810A884B881A438B88EA
:103CC0001A43CB881A430B891A434B891A438B89B1
:103CD0001A43A0F8442070474FF6FF7181800021FD
:103CE0000180C180418001727047002101804180C4
:103CF0008180C180018141818181C1817047002122
:103D000001804180012181800021C18001817047B3
:103D10000021018041808180C180018141818181B8
:103D200070470000002C01400034014000040040B6
:103D300000080040000C004021B1028842F001025E
:103D4000028004E002884FF6FE731A40028070473A
:103D500031B1B0F8442042F40042A0F8442005E01C
:103D6000B0F84420C2F30E02A0F8442070471AB104
:103D700083890B43838102E083898B43838170476E
:103D80008182704741EA0203A0F8483070471AB1B7
:103D900083890B43838102E083898B43838170474E
:103DA00001894FF6F8721140018170470A460021DF
:103DB00001894FF68F73194011430181704730B567
:103DC00004460D4629462046FFF7F0FF208940F0C3
:103DD0000700208130BD2DE9F04104460D4616460E
:103DE0001F46602D06D13B46012231462046FFF793
:103DF0005AFE05E03B46012231462046FFF79DFE74
:103E000029462046FFF7D2FF208940F00700208195
:103E1000BDE8F08130B50C4600210189C9B24FF6EA
:103E2000FF7505EA0325154325432943018130BD6C
:103E30002DE9F04105460E461746984600244346B4
:103E40003A4631462846FFF7E5FF2C894FF6F870D1
:103E5000044044F007044FF68F70044044F07004AF
:103E60002C81BDE8F081F0B504460D4616461F468C
:103E70003B46324629462046FFF7CCFF208940F4D6
:103E800080402081F0BD0185828270470A46002172
:103E900001884FF68F731940114301807047F0B5C8
:103EA0000C4615461E460021002200230189028B84
:103EB000038C4FF6F877394021434FF6FC473A40E0
:103EC00040F201173A434FF6DD773B404FF6FF775C
:103ED00007EA06172F433B43018102830384F0BDA9
:103EE0000A460021018B4FF68F731940114301835D
:103EF00070470A460021018B48F6FF7319404FF6C0
:103F0000FF7303EA02231943018370470A46002125
:103F1000818B4FF68F7319401143818370470A4696
:103F20000021818B48F6FF7319404FF6FF7303EAB7
:103F3000022319438183704721B1028842F0800235
:103F4000028004E002884FF67F731A4002807047B7
:103F500021B1828842F00402828004E082884FF618
:103F6000FB731A408280704721B1828842F00802B8
:103F7000828004E082884FF6F7731A40828070478F
:103F800021B1828842F00102828004E082884FF6EB
:103F9000FE731A40828070470A460021018B4FF65B
:103FA000F77319401143018370470A460021018BC2
:103FB0004FF2FF7319404FF6FF7303EA02231943D0
:103FC000018370470A460021818B4FF6F773194031
:103FD0001143818370470A460021818B4FF2FF73A2
:103FE00019404FF6FF7303EA022319438183704798
:103FF0000A460021018B4FF6FB73194011430183E0
:1040000070470A460021018B4FF6FF3319404FF6E7
:10401000FF7303EA02231943018370470A46002114
:10402000818B4FF6FB7319401143818370470A4619
:104030000021818B4FF6FF3319404FF6FF7303EADF
:1040400002231943818370470A460021018B4FF6F2
:104050007F7319401143018370470A460021018B89
:10406000C1F30E014FF6FF7303EA022319430183E4
:1040700070470A460021818B4FF67F731940114328
:10408000818370470A460021818BC1F30E014FF6F0
:10409000FF7303EA02231943818370470A46002114
:1040A000018C4FF6FD7319401143018470470A4695
:1040B0000021018C4FF6F7731940114301847047BA
:1040C0000A460021018C4FF6DF7319404FF6FF734B
:1040D00003EA02131943018470470A460021018C48
:1040E0004FF67F7319404FF6FF7303EA021319432B
:1040F000018470470A460021018C4FF6FF53194096
:104100004FF6FF7303EA02231943018470470A46FE
:104110000021018C4FF2FF7319404FF6FF7303EA41
:1041200002231943018470470A460021018C4DF691
:10413000FF7319404FF6FF7303EA023319430184FA
:10414000704730B5002301248C40A3B2048C9C43FB
:104150000484048C02FA01F5ADB22C43048430BD12
:1041600030B5002304248C40A3B2048C9C43048407
:10417000048C02FA01F5ADB22C43048430BD70B555
:104180000346002000241846183001258D40ACB2AB
:104190001D8CA5431D8409B1082909D100EB6100DC
:1041A000056825F0700505600568154305600EE09B
:1041B0000D1FC5F34E052844056825F4E04505604C
:1041C00005684FF6FF7606EA02263543056070BDA6
:1041D00021B1028842F00202028004E002884FF618
:1041E000FD731A400280704721B1028842F0040238
:1041F000028004E002884FF6FB731A400280704789
:1042000021B1828842F08002828004E082884FF6E9
:104210007F731A408280704702884FF6F7731A4006
:10422000028002880A430280704782884FF68F73AB
:104230001A40828082880A438280704702894FF642
:10424000F8731A40028102890A4302817047028989
:104250004FF67F731A40028102890A430281704738
:1042600081847047818570478186704701877047D8
:1042700081877047A0F84010704702884FF6FF43CF
:104280001A40028002880A43028070470146888EE5
:1042900070470146088F70470146888F7047014676
:1042A000B1F8400070470146888C70470146088D80
:1042B000704702460020138A0B400BB1012000E03A
:1042C00000207047CA430282704730B50246002082
:1042D00000230024158A05EA0103958905EA0104F3
:1042E00013B10CB1012000E0002030BDCA430282AE
:1042F0007047000010B50146002400220023481C2E
:1043000018B10F3008B1887B08B94FF0FF34BCB941
:10431000487B0344887B0344002203E0481C805C04
:104320000344521C0C2AF9DB002204E001F11000C6
:10433000805C0344521C887B9042F7DC83F0FF03CF
:10434000D8B210BD10B500242348007830B32348FC
:104350000068234948600E200870002048701E48FD
:10436000007888701C4802781E491D48083005F006
:1043700087F930221A49222000F050F804461748E5
:104380000068401C154908600846006810F5807FE9
:1043900001D30020086000200F490870204610BD9E
:1043A00070B5044600250C4801780078401C0A4A84
:1043B00010700C4844541046007828B90A48D0E9D7
:1043C00000100A4AC2E9001003480078282801D1E9
:1043D000FFF7B8FF284670BD580100205C0100209F
:1043E000F8080020D0080020000200206001002012
:1043F000002107E042F6E06100BF0A00A1F10103DD
:1044000099B2FAD10200A0F1010398B2F2D170473B
:104410000020FA490860FA49086070472DE9F04128
:1044200004460F4615460026F5480068401C9621B4
:1044300090FBF1F201FB1200F0490968884200D1BB
:10444000761E2EBBEE48006800EBC000ED4901EB84
:10445000C0004473EA48006800EBC00001EBC000F4
:104460008573E749096801EBC101E64A02EBC10126
:1044700001F110002A46394605F002F9E0480068CB
:10448000401C962190FBF1F201FB1200DC49086010
:104490003046BDE8F0812DE9F0418CB005460E466E
:1044A0001746984600243021684605F002F906B107
:1044B0000FB94FF0FF3424B93A46314602A805F04F
:1044C000DFF844B9CDF804808DF8005030226946F9
:1044D0000120FFF7A3FF20460CB0BDE8F08170B5C6
:1044E0000446002504B96D1EA5B92E2020700020B9
:1044F000C4F80100C4F80500C4F80900C24AC3A109
:10450000601C07F033FE601C05F0DEF80B2801D3B9
:104510006FF001051DB92046FFF7ECFEE073002D9A
:1045200009DABB4805F0D0F8461C2B463246B8499C
:104530002120FFF7B0FFA07B103070BD2DE9F043C4
:104540008DB080460F4615461C46DDF8509000267B
:10455000302101A805F0ADF805B10CB94FF0FF36D8
:1045600026B92246294603A805F08AF85EB9CDF897
:1045700008908DF80470E0B28DF80600302201A991
:104580004046FFF74BFF30460DB0BDE8F0832DE904
:10459000F04393B005460E469146DDE91A780024B3
:1045A000302106A805F085F81821684605F081F845
:1045B0006CB9CDE90078ADF80860ADF8109018221C
:1045C000694608A805F05CF818208DF81A0044B96F
:1045D000002007908DF81850302206A92846FFF7D2
:1045E0001DFF204613B0BDE8F0832DE9F04397B0DE
:1045F00005460E469146DDE91E78002430210AA8C2
:1046000005F057F82821684605F053F864B9CDE95C
:1046100000780296CDF81890282269460CA805F07B
:104620002FF828208DF82A0044B900200B908DF82F
:10463000285030220AA92846FFF7F0FE204617B07E
:10464000BDE8F08370B50546002472490968481C2E
:10465000C11700EBD1514912A0EB41216E4A1268FB
:10466000914200D1641E74B96C486A490968455486
:1046700068490968481CC11700EBD1514912A0EBE9
:104680004121644A1160002C09DA654805F01CF8E4
:10469000461C2346324662490E20FFF7FCFE2046A8
:1046A00070BD10B50146002001B9401E38B95A4A04
:1046B0001268584B1B689A4201D16FF0010078B91B
:1046C000564A554B1B68D25C0A70534B1B685A1CE8
:1046D000D31702EBD3535B12A2EB43234E4C236060
:1046E00010BD70B50546002405B9641E3CB94348A9
:1046F000006843490968884201D16FF00104A4B9F8
:104700003E48006800EBC0003E4A02EBC001482270
:10471000284604F0B5FF39480068401C962190FBFC
:10472000F1F201FB120035490860204670BD70B5FA
:1047300004460D462A462146812002F0F7FE00205D
:1047400070BD38480068384908603648001D006868
:104750004860344808300068886000207047F0B531
:104760008DB006460C4600272578302101A804F0BC
:10477000A0FF222D1BD1302E0BD128222B4903A8BC
:1047800004F07EFF28208DF8060000208DF805003B
:1047900027E0312D25D1282203A9244804F070FFF9
:1047A00001208DF8060000208DF8050019E01F4853
:1047B000405D80B1207A022803D1207A1B494855F8
:1047C00005E0207A012802D1207A184948550020B6
:1047D0008DF8050002E005208DF8050001208DF818
:1047E00006006068029020788DF80400302201A94C
:1047F0003046FFF713FE38460DB0F0BD78010020BB
:104800007C0100203C0900202809002025730000BD
:1048100061D200088801002084010020D006002019
:1048200073D20008E8F7FF1F2C3400206C330020FF
:104830002DE9F0438DB007468846002400253E460A
:10484000302101A804F035FF17B1B8F1000F01D1F4
:104850004FF0FF34ECB9002506E0F74951F8250088
:1048600001A941F825006D1C042DF6DBF348016811
:104870003160416871608068B060102201A906F162
:104880000C0004F0FDFEEE490968F1612020C8F833
:104890000000002C0ADAEB4804F016FF00F10109D1
:1048A00023464A46E7492120FFF7F5FD20460DB093
:1048B000BDE8F083F0B5AFB006460D4600244021B8
:1048C0001FA804F0F6FE40210FA804F0F2FE00201D
:1048D0000E90302101A804F0ECFE05B9641E3CB92D
:1048E0000EA91FA8FFF7A4FF002801DA6FF001044A
:1048F00044B90DAA0FA91FA801F088F9002801DA10
:104900006FF00204ACB90D98C0B28DF8060068686B
:10491000029028788DF8040000208DF805000FA97A
:1049200003A80D9A04F0ACFE302201A93046FFF72F
:1049300075FD002C09DAC44804F0C6FE471C234666
:104940003A46C1492120FFF7A6FD20462FB0F0BD11
:1049500070B506460C460025A078BC490870A278C0
:1049600004F10801B64804F08BFE284670BD2DE91D
:10497000F04180460E4600270024B5782A4606F10D
:104980000801B34804F07CFEFEF7E7FAAA48FEF7F8
:1049900029FB00BF11E0AF48FEF711FB052802D04C
:1049A0003420FEF775FDAA4A52F82410A24A0423C7
:1049B00003FB0420FEF7E6FB641CE91705EB91718D
:1049C000B4EBA10FE7DBFEF7D4FA3846BDE8F0817F
:1049D00070B506460C4600259F49606808449F490B
:1049E00008604FF40062084601689D4804F048FEE4
:1049F000284670BD2DE9F04107460D4600260024EB
:104A0000FEF7ABFA944A69688818FEF7EBFA00BF24
:104A100012E09048FEF7D3FA052802D03420FEF7C2
:104A200037FD8D4B6A681A4402EB84008C4A52F8B9
:104A30002410FEF7A7FB641CB4F5007FE9DBFEF74A
:104A400098FA3046BDE8F0812DE9F04180460D46E8
:104A500000260027834C30222946204604F010FE11
:104A6000A088C0F30A078049E068096888420FD926
:104A70007B4939447C4BA2681B68C81804F11001BB
:104A800004F0FEFD7849A06809680844764908608A
:104A90007549E0680968884202D1002072490860BF
:104AA0003046BDE8F0812DE9F0438DB081460D46DA
:104AB00000270024A046302101A804F0FAFD0026BA
:104AC000674EE86804901C210498B0FBF1F800BF21
:104AD00014E01C200390C4EBC40006EB80011C22F0
:104AE00005A804F0CDFD302201A95320FFF796FC64
:104AF0005E4800681C305D490860641C4445E8DB82
:104B00001C210498B0FBF1F201FB1200C0B1049823
:104B1000B0FBF1F201FB12000390C4EBC40006EB02
:104B2000800105A8039A04F0ABFD302201A95320AF
:104B3000FFF774FC4D490398096808444B49086025
:104B40004A4904980968884202D100204749086010
:104B500038460DB0BDE8F0832DE9F04105460E461C
:104B600000272C46142E11D1227C2146404804F007
:104B700087FD207C3E490874607C4874A07C887462
:104B80003C48D0E900103C4AC2E900103846BDE874
:104B9000F08170477047F0B587B005460C46002697
:104BA000182101A804F085FD462D04D0472D14D00E
:104BB000482D74D112E0207828B9FFF7EAFF0120D0
:104BC0002E49086008E02078012805D100202C49F2
:104BD000086001202B49086089E088E018222146FE
:104BE00001A804F04DFD28490198096888420ED1BA
:104BF000264904980968884209D12549029809681C
:104C0000884204D1234906980968884254D000207C
:104C10001A4908601D49049808601D4902980860F7
:104C20001849039808601849019808600598A8BBBE
:104C300001201949086036E0002003082C340020C8
:104C4000943300208AD200089CD200088101002001
:104C50003C340020A086010000C000089401002020
:104C600078340020DC3C002090010020A8010020C6
:104C7000280900200002002070010020C40100204B
:104C8000CC010020BC010020AC010020B4010020B8
:104C9000B8010020B0010020C001002000E025E0A4
:104CA000FE49059808600020FD490860FD4908603C
:104CB000FD49069808600EE00020FA490860FB49AB
:104CC00003980860059818B90120F449086002E0CB
:104CD000F24905980860F64804F0F6FC471C3A468D
:104CE000F3494820019BFFF7D6FB00E000BF00BF5F
:104CF000304607B0F0BD2DE9F04106460C460027CE
:104D00000025492E04D0502E0FD0512E1FD10FE078
:104D1000207818B90120E749086005E020780128CB
:104D200002D10020E349086012E0FCF70FF80FE021
:104D30002568002D0ADD282D08DC4FF47A7090FBE1
:104D4000F5F0192190FBF1F0DB49086000E000BFAD
:104D500000BFDA4804F0B8FC00F10108D64842462A
:104D6000D64903683046FFF796FB3846BDE8F08128
:104D700070B505460C4600262C2D37D1A4B910215C
:104D8000CF48FDF78EFB4FF48071CE48FDF789FBCD
:104D90004FF40071CA48FDF784FB00230C22CAA11E
:104DA0002120FFF778FB73E0012C12D11021C448B9
:104DB000FDF779FB2102C348FDF775FB6102C0488E
:104DC000FDF771FB01230D22C2A12120FFF763FB38
:104DD0005EE0022C5CD10021C248FEF7ADFF022349
:104DE0000A22C1A12120FFF756FB51E0292D18D13D
:104DF00054B91021B248FDF754FB00230A22BDA18B
:104E00002120FFF748FB43E0012C41D11021AC48A1
:104E1000FDF749FB01230B22B9A12120FFF73BFB42
:104E200036E02A2D19D15CB94FF48071A548FDF701
:104E300038FB00230A22B5A12120FFF72CFB27E035
:104E4000012C25D121029F48FDF72DFB01230B22C8
:104E5000B1A12120FFF71FFB1AE02B2D18D15CB95F
:104E60004FF400719648FDF71CFB00230A22ADA108
:104E70002120FFF710FB0BE0012C09D161029048C3
:104E8000FDF711FB01230B22A9A12120FFF703FB52
:104E9000304670BD2DE9F04180460C46002627784B
:104EA000257A29463846FFF763FF2B460922A3A13E
:104EB0002120FFF7F0FA3046BDE8F08170B50546D5
:104EC0000C460026292D19D1012C0AD108217C4835
:104ED000FDF7E7FA01230D229BA12120FFF7DBFA62
:104EE00043E0022C41D108217548FDF7DCFA02238A
:104EF0000D2299A12120FFF7CEFA36E02A2D19D1F3
:104F0000012C0AD161026F48FDF7CBFA01230D2273
:104F100095A12120FFF7BFFA27E0022C25D121021D
:104F20006848FDF7C0FA02230D2293A12120FFF764
:104F3000B2FA1AE02B2D18D1012C0AD1A102604837
:104F4000FDF7AFFA01230D228FA12120FFF7A3FA6D
:104F50000BE0022C09D161025948FDF7A4FA0223A3
:104F60000D228DA12120FFF796FA304670BD2DE964
:104F7000F04180460C4600252678277A394630468F
:104F8000FFF79CFF2846BDE8F0812DE9F0478146F8
:104F90000D46002700242E78AC68002C15DBB4F5F4
:104FA000FA6F12DC292E0DD17F4890FBF4F0401EE1
:104FB0001FFA80F84046FCF74CF901214948FEF7FA
:104FC000BBFE02E02A2E00D000BF23460B2277A1B1
:104FD0002120FFF760FA3846BDE8F0872DE9F04F51
:104FE00091B0894600200F90202107A804F061FBB2
:104FF0004FF0000A0025AB4600260020069000274F
:105000000024804605900490202209F1080107A899
:1050100004F036FBDDF81CA0DDF820B009980690FE
:105020000A9D0B9E0C9FBDF83680BDF83800059098
:10503000BDF83A000490BDF8344001212C20FFF760
:1050400097FE3DB1012D01D0022D03D1E9B22920F7
:10505000FFF734FF3EB1012E01D0022E03D1F1B291
:105060002A20FFF72BFF3FB1012F01D0022F03D1E0
:10507000F9B22B20FFF722FFBAF1000F0CD000216C
:105080002920FFF775FE00204B4908604FEA4A00CF
:1050900004F090FD002291E09BE00000C0010020A0
:1050A000C8010020CC010020B0010020BC0100207C
:1050B000ADD2000808020020FC010020C1D2000887
:1050C00000080140000C01404D41524D2050575204
:1050D000204F4E004D41524D20505752204F4646D2
:1050E00000000000000400404D41524D2053544F39
:1050F000500000004D41524D2041204F4E00000015
:105100004D41524D2041204F464600004D41524DE9
:105110002042204F4E0000004D41524D2042204F72
:10512000464600004D41524D2043204F4E000000A6
:105130004D41524D2043204F464600004D41524DB7
:1051400020505752000000004D41524D2041204D4B
:105150005F465744000000004D41524D2041204D14
:105160005F524556000000004D41524D2042204DF7
:105170005F465744000000004D41524D2042204DF3
:105180005F524556000000004D41524D2043204DD6
:105190005F465744000000004D41524D2043204DD2
:1051A0005F52455600000000A08601004D41524D5F
:1051B0002053504545440000D4010020AA4BCDE9BE
:1051C000000104F069FCCDE9020104F02DFDA749BE
:1051D0000860BBF1000F0AD000212A20FFF7C8FDAC
:1051E0000020A34908604FEA4B00A24908600698D6
:1051F00050B100212B20FFF7BBFD00209E49086025
:10520000069840009D490860B8F1000F09D041465A
:105210009B48FFF729F8434606229AA12120FFF771
:105220003AF9059848B196480599FFF71FF84346A3
:10523000062296A12120FFF72EF9049848B1904844
:105240000499FFF715F84346062292A12120FFF7A3
:1052500022F984B101219148FEF76EFD90490C803E
:1052600090490C8090490C8023460B22AFF2C40178
:105270002120FFF710F90F9811B0BDE8F08F7FB52E
:1052800006460C46002500200090019002900390F5
:1052900010222146684604F0F3F984480078042877
:1052A00012D14FF4FA610020FDF7FBFD4FF4FA61D3
:1052B0000020FDF703FE01210020FDF7B5FD0121CF
:1052C0001020FDF7B1FD11E0BDF808100020FDF73A
:1052D000E8FDBDF80A100020FDF7F0FD01210020D7
:1052E000FDF7A2FD01211020FDF79EFD284604B028
:1052F00070BD70B592B005460C4600263021684658
:1053000004F0D7F96A4903C9CDE90C01694A07CA13
:105310000FAB07C368480068401C18B140208DF8E7
:10532000380002E023208DF8380018220CA902A8CA
:1053300004F0A6F96068019020788DF80000002044
:105340008DF8010018208DF80200302269462846A9
:10535000FFF764F8304612B070BD70B500244022EB
:1053600098215648006801F0BBFC4FF440510120E1
:1053700001F039FD51480068FEF7BCFF4F4909684C
:10538000C97B884264D14D480068447B582C57D073
:105390000CDC552C3FD004DC1C2C10D0352C56D105
:1053A00016E0562C3ED0572C51D142E0722C16D02C
:1053B000732C1BD0742C20D0752C48D124E03F488E
:1053C0000068817B3D4800681030FFF7C5FB3EE078
:1053D0003A48016810312046FFF78BFF37E0374825
:1053E000016810312046FFF755FD30E03348016871
:1053F00010312046FFF7C9FD29E03048016810311F
:105400002046FFF7B4FD22E02C4801681031204609
:10541000FFF7E4FD1BE02948016810312046FFF743
:10542000D7FA14E02548016810312046FFF7E2FA68
:105430000DE02248016810312046FFF705FB06E029
:105440001E48016810312046FFF72DFB00BF09E020
:105450001B4804F039F9451C23462A4618492120E7
:10546000FFF719F870BD000000000240D0010020D5
:10547000DC010020D8010020E4010020E001002030
:10548000000C004053544720410000005354472073
:105490004200000053544720430000000004004035
:1054A000E8010020EA010020EC010020800100203A
:1054B000680100202C340020002003088C0100200B
:1054C000D8D2000870B505460C46A2B24FF48C71D4
:1054D000284601F0EBFB4021022001F048FE0220AB
:1054E00001F0CCFC204670BD02460023402900D9C3
:1054F0004021002304E00448C05C1070521C5B1C77
:105500008B42F8D308467047A03D002010B575487F
:10551000D0E900207449D1E90031D31A60EB0100D1
:1055200050229A1A70F1000007D27048407C01287E
:1055300003D103206E49087008E06A48D0E90010E2
:10554000694AC2E900100420694908706848007877
:10555000042811D14FF4FA610020FDF7A2FC4FF4AA
:10556000FA610020FDF7AAFC01210020FDF75CFC98
:1055700001211020FDF758FC10BD10B52822002392
:10558000584903C904F01EF800214A404B401A4311
:1055900007D1574800785549C87414221A20FEF7DD
:1055A0003DFF10BD10B54F48D0E90030514A06CA42
:1055B0005B1A60EB02005A1E70F1000009D34E48DE
:1055C000807B012805D14A480078032801D1FEF7E5
:1055D000B9FE10BD10B549480268D317414903C947
:1055E00003F0F0FF00214A404B401A4305D14448E4
:1055F0000068012801D1FBF7A9FB10BD10B50121FE
:105600008807FEF762FE80B1FFF780FFFFF7B5FF66
:105610003448D0E90020521C40F100003149C1E972
:10562000002001218807FEF761FE10BD10B50121A1
:105630003448FEF74AFE18B101213248FEF756FE03
:1056400010BD70B501213048FEF73FFE002847D05D
:105650002E48008828B12D480088401E2B4908801C
:105660003AE0092029490880FBF7CCFF0446FCF703
:105670000DF80546284604F07EFA254908602046C4
:1056800004F079FA2349086021480168214800683C
:1056900000F0B8F82048007840F002001E49087079
:1056A0001E481F49097840F821401E481C490978C6
:1056B00040F821501A480078401C194908700846E3
:1056C0000078032801DB00200870FCF735F8FCF7B0
:1056D0009FF8FCF7D4F800BF01210B48FEF706FE47
:1056E00070BD000000020020700100202809002089
:1056F00080010020600100206C330020FC010020AC
:1057000008020020000C004000100040F0010020C2
:10571000F4010020F801002000000020B005002066
:10572000F2010020BC0500202DE9F04704460F4699
:10573000002004F020FA80463946206A04F01DF863
:105740008246414603F0C7FFE060E168206804F04C
:105750001AF88146A06904F00EFA8246E16803F067
:10576000BAFF804604F033FAA0612149E06908607D
:1057700020491F48006804F0A9FA05D31E491C48B7
:10578000006804F099FA01D200206060A06904F07A
:10579000F2F98046616803F0F6FF0546D4E903019B
:1057A00003F0EBFF8046A16803F0EDFF0646E068DA
:1057B00020612946484603F08EFF8046314603F0BB
:1057C0008AFFE0610D49E069096804F07FFA02D2BE
:1057D0000A480068E0610A49E069096804F06CFA67
:1057E00002D207480068E061E069BDE8F087000088
:1057F000180200200000A0400000A0C010020020FD
:10580000140200202DE9F35F83480078E8B1834853
:1058100001688348006803F0B6FF044681480168C8
:105820008148006803F0AFFF0546214603F0DDFF25
:105830007E4908607E4801687C48006803F0D5FF17
:105840007C490860002074490870DDE9000103F01C
:1058500042FF04464FF07C5103F095FF7649086003
:10586000DDE9000103F089FF7449086072480068AF
:105870007349086071480068724908606D480168A2
:105880007048006803F07FFF6F49086008460068B1
:1058900004F0E3F980464FF011326C4B04F08AF8C3
:1058A00004460D46684801686948006803F013FF24
:1058B000804604F0D2F9064622462B4603F0D3FF79
:1058C000824604F0DDF9624908605F4801684FF0E4
:1058D0007C5003F058FF04465D480168204603F001
:1058E000FAFE5C4908600846006804F0B6F906460E
:1058F00007F036FC044604F0C3F9574908605548E0
:10590000006804F0AAF9064607F076FB044604F0A6
:10591000B7F952490860454801684948006803F0F2
:1059200032FF05464D480168284603F02CFF044627
:105930004B480168204603F0CEFE494908603B48C9
:1059400001683F48006803F01EFF054642480168B1
:10595000284603F018FF044642480168204603F039
:10596000BAFE404908600846006880F000442046BE
:1059700004F073F905463C4A3C4B04F01BF807461B
:1059800004F07EF93A4908603548006804F065F98A
:105990000646354A354B04F00DF8044604F070F91C
:1059A00034490860214801682548006803F0EBFE8F
:1059B000044631480168204603F017FF2F4908606C
:1059C0002D4801682048006803F00FFF2C4908604B
:1059D000144801681E48006804F078F908D2294884
:1059E00001681B48006803F0C8FE1949086011E00F
:1059F0000C48006880F0004415480168204604F017
:105A000065F907D21F4801681148006803F063FE7A
:105A10000F490860BDE8FC9F900200203C02002076
:105A20005C0200204C02002044020020740200208E
:105A300038020020780200207C0200208002002032
:105A40006C02002070020020600200201111813FD2
:105A50002402002088020020640200206802002046
:105A600034020020300200200AD7A3703D0AF33F21
:105A70001C020020200200205802002028020020E2
:105A80002C0200205402002001465A484078594A0E
:105A9000127800EB022000B208805648C078554AC0
:105AA000927800EB022000B2488052484079514A77
:105AB000127900EB022000B288804E48C0794D4A2E
:105AC000927900EB022000B2C8804A48407A494AE5
:105AD000127A00EB022002B20A814648C07A454A97
